{
  "contractName": "Lending",
  "abi": [
    {
      "inputs": [],
      "name": "NeedsMoreThanZero",
      "type": "error"
    },
    {
      "inputs": [
        {
          "internalType": "address",
          "name": "token",
          "type": "address"
        }
      ],
      "name": "TokenNotAllowed",
      "type": "error"
    },
    {
      "inputs": [],
      "name": "TransferFailed",
      "type": "error"
    },
    {
      "anonymous": false,
      "inputs": [
        {
          "indexed": true,
          "internalType": "address",
          "name": "token",
          "type": "address"
        },
        {
          "indexed": true,
          "internalType": "address",
          "name": "priceFeed",
          "type": "address"
        }
      ],
      "name": "AllowedTokenSet",
      "type": "event"
    },
    {
      "anonymous": false,
      "inputs": [
        {
          "indexed": true,
          "internalType": "address",
          "name": "account",
          "type": "address"
        },
        {
          "indexed": true,
          "internalType": "address",
          "name": "token",
          "type": "address"
        },
        {
          "indexed": true,
          "internalType": "uint256",
          "name": "amount",
          "type": "uint256"
        }
      ],
      "name": "Borrow",
      "type": "event"
    },
    {
      "anonymous": false,
      "inputs": [
        {
          "indexed": true,
          "internalType": "address",
          "name": "account",
          "type": "address"
        },
        {
          "indexed": true,
          "internalType": "address",
          "name": "token",
          "type": "address"
        },
        {
          "indexed": true,
          "internalType": "uint256",
          "name": "amount",
          "type": "uint256"
        }
      ],
      "name": "Deposit",
      "type": "event"
    },
    {
      "anonymous": false,
      "inputs": [
        {
          "indexed": true,
          "internalType": "address",
          "name": "account",
          "type": "address"
        },
        {
          "indexed": true,
          "internalType": "address",
          "name": "repayToken",
          "type": "address"
        },
        {
          "indexed": true,
          "internalType": "address",
          "name": "rewardToken",
          "type": "address"
        },
        {
          "indexed": false,
          "internalType": "uint256",
          "name": "halfDebtInEth",
          "type": "uint256"
        },
        {
          "indexed": false,
          "internalType": "address",
          "name": "liquidator",
          "type": "address"
        }
      ],
      "name": "Liquidate",
      "type": "event"
    },
    {
      "anonymous": false,
      "inputs": [
        {
          "indexed": true,
          "internalType": "address",
          "name": "previousOwner",
          "type": "address"
        },
        {
          "indexed": true,
          "internalType": "address",
          "name": "newOwner",
          "type": "address"
        }
      ],
      "name": "OwnershipTransferred",
      "type": "event"
    },
    {
      "anonymous": false,
      "inputs": [
        {
          "indexed": true,
          "internalType": "address",
          "name": "account",
          "type": "address"
        },
        {
          "indexed": true,
          "internalType": "address",
          "name": "token",
          "type": "address"
        },
        {
          "indexed": true,
          "internalType": "uint256",
          "name": "amount",
          "type": "uint256"
        }
      ],
      "name": "Repay",
      "type": "event"
    },
    {
      "anonymous": false,
      "inputs": [
        {
          "indexed": true,
          "internalType": "address",
          "name": "account",
          "type": "address"
        },
        {
          "indexed": true,
          "internalType": "address",
          "name": "token",
          "type": "address"
        },
        {
          "indexed": true,
          "internalType": "uint256",
          "name": "amount",
          "type": "uint256"
        }
      ],
      "name": "Withdraw",
      "type": "event"
    },
    {
      "inputs": [],
      "name": "LIQUIDATION_REWARD",
      "outputs": [
        {
          "internalType": "uint256",
          "name": "",
          "type": "uint256"
        }
      ],
      "stateMutability": "view",
      "type": "function"
    },
    {
      "inputs": [],
      "name": "LIQUIDATION_THRESHOLD",
      "outputs": [
        {
          "internalType": "uint256",
          "name": "",
          "type": "uint256"
        }
      ],
      "stateMutability": "view",
      "type": "function"
    },
    {
      "inputs": [],
      "name": "MIN_HEALH_FACTOR",
      "outputs": [
        {
          "internalType": "uint256",
          "name": "",
          "type": "uint256"
        }
      ],
      "stateMutability": "view",
      "type": "function"
    },
    {
      "inputs": [],
      "name": "owner",
      "outputs": [
        {
          "internalType": "address",
          "name": "",
          "type": "address"
        }
      ],
      "stateMutability": "view",
      "type": "function"
    },
    {
      "inputs": [],
      "name": "renounceOwnership",
      "outputs": [],
      "stateMutability": "nonpayable",
      "type": "function"
    },
    {
      "inputs": [
        {
          "internalType": "address",
          "name": "",
          "type": "address"
        },
        {
          "internalType": "address",
          "name": "",
          "type": "address"
        }
      ],
      "name": "s_accountToTokenBorrows",
      "outputs": [
        {
          "internalType": "uint256",
          "name": "",
          "type": "uint256"
        }
      ],
      "stateMutability": "view",
      "type": "function"
    },
    {
      "inputs": [
        {
          "internalType": "address",
          "name": "",
          "type": "address"
        },
        {
          "internalType": "address",
          "name": "",
          "type": "address"
        }
      ],
      "name": "s_accountToTokenDeposits",
      "outputs": [
        {
          "internalType": "uint256",
          "name": "",
          "type": "uint256"
        }
      ],
      "stateMutability": "view",
      "type": "function"
    },
    {
      "inputs": [
        {
          "internalType": "uint256",
          "name": "",
          "type": "uint256"
        }
      ],
      "name": "s_allowedTokens",
      "outputs": [
        {
          "internalType": "address",
          "name": "",
          "type": "address"
        }
      ],
      "stateMutability": "view",
      "type": "function"
    },
    {
      "inputs": [
        {
          "internalType": "address",
          "name": "",
          "type": "address"
        }
      ],
      "name": "s_tokenToPriceFeed",
      "outputs": [
        {
          "internalType": "address",
          "name": "",
          "type": "address"
        }
      ],
      "stateMutability": "view",
      "type": "function"
    },
    {
      "inputs": [
        {
          "internalType": "address",
          "name": "newOwner",
          "type": "address"
        }
      ],
      "name": "transferOwnership",
      "outputs": [],
      "stateMutability": "nonpayable",
      "type": "function"
    },
    {
      "inputs": [
        {
          "internalType": "address",
          "name": "token",
          "type": "address"
        },
        {
          "internalType": "uint256",
          "name": "amount",
          "type": "uint256"
        }
      ],
      "name": "deposit",
      "outputs": [],
      "stateMutability": "nonpayable",
      "type": "function"
    },
    {
      "inputs": [
        {
          "internalType": "address",
          "name": "token",
          "type": "address"
        },
        {
          "internalType": "uint256",
          "name": "amount",
          "type": "uint256"
        }
      ],
      "name": "withdraw",
      "outputs": [],
      "stateMutability": "nonpayable",
      "type": "function"
    },
    {
      "inputs": [
        {
          "internalType": "address",
          "name": "token",
          "type": "address"
        },
        {
          "internalType": "uint256",
          "name": "amount",
          "type": "uint256"
        }
      ],
      "name": "borrow",
      "outputs": [],
      "stateMutability": "nonpayable",
      "type": "function"
    },
    {
      "inputs": [
        {
          "internalType": "address",
          "name": "account",
          "type": "address"
        },
        {
          "internalType": "address",
          "name": "repayToken",
          "type": "address"
        },
        {
          "internalType": "address",
          "name": "rewardToken",
          "type": "address"
        }
      ],
      "name": "liquidate",
      "outputs": [],
      "stateMutability": "nonpayable",
      "type": "function"
    },
    {
      "inputs": [
        {
          "internalType": "address",
          "name": "token",
          "type": "address"
        },
        {
          "internalType": "uint256",
          "name": "amount",
          "type": "uint256"
        }
      ],
      "name": "repay",
      "outputs": [],
      "stateMutability": "nonpayable",
      "type": "function"
    },
    {
      "inputs": [
        {
          "internalType": "address",
          "name": "user",
          "type": "address"
        }
      ],
      "name": "getAccountInformation",
      "outputs": [
        {
          "internalType": "uint256",
          "name": "borrowedValueInETH",
          "type": "uint256"
        },
        {
          "internalType": "uint256",
          "name": "collateralValueInETH",
          "type": "uint256"
        }
      ],
      "stateMutability": "view",
      "type": "function"
    },
    {
      "inputs": [
        {
          "internalType": "address",
          "name": "user",
          "type": "address"
        }
      ],
      "name": "getAccountCollateralValue",
      "outputs": [
        {
          "internalType": "uint256",
          "name": "",
          "type": "uint256"
        }
      ],
      "stateMutability": "view",
      "type": "function"
    },
    {
      "inputs": [
        {
          "internalType": "address",
          "name": "user",
          "type": "address"
        }
      ],
      "name": "getAccountBorrowedValue",
      "outputs": [
        {
          "internalType": "uint256",
          "name": "",
          "type": "uint256"
        }
      ],
      "stateMutability": "view",
      "type": "function"
    },
    {
      "inputs": [
        {
          "internalType": "address",
          "name": "token",
          "type": "address"
        },
        {
          "internalType": "uint256",
          "name": "amount",
          "type": "uint256"
        }
      ],
      "name": "getEthValue",
      "outputs": [
        {
          "internalType": "uint256",
          "name": "",
          "type": "uint256"
        }
      ],
      "stateMutability": "view",
      "type": "function"
    },
    {
      "inputs": [
        {
          "internalType": "address",
          "name": "token",
          "type": "address"
        },
        {
          "internalType": "uint256",
          "name": "amount",
          "type": "uint256"
        }
      ],
      "name": "getTokenValueFromEth",
      "outputs": [
        {
          "internalType": "uint256",
          "name": "",
          "type": "uint256"
        }
      ],
      "stateMutability": "view",
      "type": "function"
    },
    {
      "inputs": [
        {
          "internalType": "address",
          "name": "account",
          "type": "address"
        }
      ],
      "name": "healthFactor",
      "outputs": [
        {
          "internalType": "uint256",
          "name": "",
          "type": "uint256"
        }
      ],
      "stateMutability": "view",
      "type": "function"
    },
    {
      "inputs": [
        {
          "internalType": "address",
          "name": "token",
          "type": "address"
        },
        {
          "internalType": "address",
          "name": "priceFeed",
          "type": "address"
        }
      ],
      "name": "setAllowedToken",
      "outputs": [],
      "stateMutability": "nonpayable",
      "type": "function"
    }
  ],
  "bytecode": "0x60806040523480156200001157600080fd5b5060016000819055506200003a6200002e6200004060201b60201c565b6200004860201b60201c565b6200010e565b600033905090565b6000600160009054906101000a900473ffffffffffffffffffffffffffffffffffffffff16905081600160006101000a81548173ffffffffffffffffffffffffffffffffffffffff021916908373ffffffffffffffffffffffffffffffffffffffff1602179055508173ffffffffffffffffffffffffffffffffffffffff168173ffffffffffffffffffffffffffffffffffffffff167f8be0079c531659141344cd1fd0a4f28419497f9722a3daafe3b4186f6b6457e060405160405180910390a35050565b612820806200011e6000396000f3fe608060405234801561001057600080fd5b50600436106101425760003560e01c80637d1a4450116100b8578063ad0d75941161007c578063ad0d7594146103c2578063c183f76d146103e0578063ca5ce2ec146103fc578063df80eed214610418578063f2fde38b14610436578063f3fef3a31461045257610142565b80637d1a4450146102f65780638da5cb5b1461032657806390a8ae9b1461034457806394ecead5146103625780639b35678d1461039257610142565b80634b8a35291161010a5780634b8a35291461020f5780634f0cc2fa1461022b57806359a555b91461025b5780636ad9f9df1461028b578063715018a6146102bb5780637be564fc146102c557610142565b80630af8c88e146101475780630f1e35da1461017757806322867d78146101a7578063396aaa8f146101c357806347e7ef24146101f3575b600080fd5b610161600480360381019061015c9190611e0c565b61046e565b60405161016e9190611e7a565b60405180910390f35b610191600480360381019061018c9190611ec1565b6104ad565b60405161019e9190611f10565b60405180910390f35b6101c160048036038101906101bc9190611ec1565b6105b2565b005b6101dd60048036038101906101d89190611f2b565b61073a565b6040516101ea9190611f10565b60405180910390f35b61020d60048036038101906102089190611ec1565b61075f565b005b61022960048036038101906102249190611ec1565b610a2b565b005b61024560048036038101906102409190611f6b565b610e04565b6040516102529190611f10565b60405180910390f35b61027560048036038101906102709190611ec1565b610f1b565b6040516102829190611f10565b60405180910390f35b6102a560048036038101906102a09190611f6b565b611020565b6040516102b29190611f10565b60405180910390f35b6102c3611095565b005b6102df60048036038101906102da9190611f6b565b6110a9565b6040516102ed929190611f98565b60405180910390f35b610310600480360381019061030b9190611f6b565b6110c7565b60405161031d9190611f10565b60405180910390f35b61032e6111de565b60405161033b9190611e7a565b60405180910390f35b61034c611208565b6040516103599190611f10565b60405180910390f35b61037c60048036038101906103779190611f6b565b61120d565b6040516103899190611e7a565b60405180910390f35b6103ac60048036038101906103a79190611f2b565b611240565b6040516103b99190611f10565b60405180910390f35b6103ca611265565b6040516103d79190611f10565b60405180910390f35b6103fa60048036038101906103f59190611f2b565b61126a565b005b61041660048036038101906104119190611fc1565b61145d565b005b610420611670565b60405161042d9190611f10565b60405180910390f35b610450600480360381019061044b9190611f6b565b61167c565b005b61046c60048036038101906104679190611ec1565b6116ff565b005b6003818154811061047e57600080fd5b906000526020600020016000915054906101000a900473ffffffffffffffffffffffffffffffffffffffff1681565b600080600260008573ffffffffffffffffffffffffffffffffffffffff1673ffffffffffffffffffffffffffffffffffffffff16815260200190815260200160002060009054906101000a900473ffffffffffffffffffffffffffffffffffffffff16905060008173ffffffffffffffffffffffffffffffffffffffff1663feaf968c6040518163ffffffff1660e01b815260040160a060405180830381865afa15801561055f573d6000803e3d6000fd5b505050506040513d601f19601f8201168201806040525081019061058391906120a1565b50505091505080670de0b6b3a76400008561059e919061214b565b6105a891906121bc565b9250505092915050565b6105ba6118c7565b81600073ffffffffffffffffffffffffffffffffffffffff16600260008373ffffffffffffffffffffffffffffffffffffffff1673ffffffffffffffffffffffffffffffffffffffff16815260200190815260200160002060009054906101000a900473ffffffffffffffffffffffffffffffffffffffff1673ffffffffffffffffffffffffffffffffffffffff160361068b57806040517f94403b700000000000000000000000000000000000000000000000000000000081526004016106829190611e7a565b60405180910390fd5b81600081036106c6576040517ff45911f000000000000000000000000000000000000000000000000000000000815260040160405180910390fd5b828473ffffffffffffffffffffffffffffffffffffffff163373ffffffffffffffffffffffffffffffffffffffff167f05f2eeda0e08e4b437f487c8d7d29b14537d15e3488170dc3de5dbdf8dac468460405160405180910390a461072c338585611916565b5050610736611a6a565b5050565b6004602052816000526040600020602052806000526040600020600091509150505481565b6107676118c7565b81600073ffffffffffffffffffffffffffffffffffffffff16600260008373ffffffffffffffffffffffffffffffffffffffff1673ffffffffffffffffffffffffffffffffffffffff16815260200190815260200160002060009054906101000a900473ffffffffffffffffffffffffffffffffffffffff1673ffffffffffffffffffffffffffffffffffffffff160361083857806040517f94403b7000000000000000000000000000000000000000000000000000000000815260040161082f9190611e7a565b60405180910390fd5b8160008103610873576040517ff45911f000000000000000000000000000000000000000000000000000000000815260040160405180910390fd5b828473ffffffffffffffffffffffffffffffffffffffff163373ffffffffffffffffffffffffffffffffffffffff167f5548c837ab068cf56a2c2479df0882a4922fd203edb7517321831d95078c5f6260405160405180910390a482600460003373ffffffffffffffffffffffffffffffffffffffff1673ffffffffffffffffffffffffffffffffffffffff16815260200190815260200160002060008673ffffffffffffffffffffffffffffffffffffffff1673ffffffffffffffffffffffffffffffffffffffff168152602001908152602001600020600082825461095a91906121ed565b9250508190555060008473ffffffffffffffffffffffffffffffffffffffff166323b872dd3330876040518463ffffffff1660e01b81526004016109a093929190612221565b6020604051808303816000875af11580156109bf573d6000803e3d6000fd5b505050506040513d601f19601f820116820180604052508101906109e39190612290565b905080610a1c576040517f90b8ec1800000000000000000000000000000000000000000000000000000000815260040160405180910390fd5b505050610a27611a6a565b5050565b610a336118c7565b81600073ffffffffffffffffffffffffffffffffffffffff16600260008373ffffffffffffffffffffffffffffffffffffffff1673ffffffffffffffffffffffffffffffffffffffff16815260200190815260200160002060009054906101000a900473ffffffffffffffffffffffffffffffffffffffff1673ffffffffffffffffffffffffffffffffffffffff1603610b0457806040517f94403b70000000000000000000000000000000000000000000000000000000008152600401610afb9190611e7a565b60405180910390fd5b8160008103610b3f576040517ff45911f000000000000000000000000000000000000000000000000000000000815260040160405180910390fd5b828473ffffffffffffffffffffffffffffffffffffffff166370a08231306040518263ffffffff1660e01b8152600401610b799190611e7a565b602060405180830381865afa158015610b96573d6000803e3d6000fd5b505050506040513d601f19601f82011682018060405250810190610bba91906122bd565b1015610bfb576040517f08c379a0000000000000000000000000000000000000000000000000000000008152600401610bf290612347565b60405180910390fd5b82600560003373ffffffffffffffffffffffffffffffffffffffff1673ffffffffffffffffffffffffffffffffffffffff16815260200190815260200160002060008673ffffffffffffffffffffffffffffffffffffffff1673ffffffffffffffffffffffffffffffffffffffff1681526020019081526020016000206000828254610c8791906121ed565b92505081905550828473ffffffffffffffffffffffffffffffffffffffff163373ffffffffffffffffffffffffffffffffffffffff167f312a5e5e1079f5dda4e95dbbd0b908b291fd5b992ef22073643ab691572c5b5260405160405180910390a460008473ffffffffffffffffffffffffffffffffffffffff1663a9059cbb33866040518363ffffffff1660e01b8152600401610d26929190612367565b6020604051808303816000875af1158015610d45573d6000803e3d6000fd5b505050506040513d601f19601f82011682018060405250810190610d699190612290565b905080610da2576040517f90b8ec1800000000000000000000000000000000000000000000000000000000815260040160405180910390fd5b670de0b6b3a7640000610db433611020565b1015610df5576040517f08c379a0000000000000000000000000000000000000000000000000000000008152600401610dec906123dc565b60405180910390fd5b505050610e00611a6a565b5050565b6000806000905060005b600380549050811015610f1157600060038281548110610e3157610e306123fc565b5b9060005260206000200160009054906101000a900473ffffffffffffffffffffffffffffffffffffffff1690506000600560008773ffffffffffffffffffffffffffffffffffffffff1673ffffffffffffffffffffffffffffffffffffffff16815260200190815260200160002060008373ffffffffffffffffffffffffffffffffffffffff1673ffffffffffffffffffffffffffffffffffffffff1681526020019081526020016000205490506000610eeb8383610f1b565b90508085610ef991906121ed565b94505050508080610f099061242b565b915050610e0e565b5080915050919050565b600080600260008573ffffffffffffffffffffffffffffffffffffffff1673ffffffffffffffffffffffffffffffffffffffff16815260200190815260200160002060009054906101000a900473ffffffffffffffffffffffffffffffffffffffff16905060008173ffffffffffffffffffffffffffffffffffffffff1663feaf968c6040518163ffffffff1660e01b815260040160a060405180830381865afa158015610fcd573d6000803e3d6000fd5b505050506040513d601f19601f82011682018060405250810190610ff191906120a1565b505050915050670de0b6b3a7640000848261100c919061214b565b61101691906121bc565b9250505092915050565b600080600061102e846110a9565b9150915060006064605083611043919061214b565b61104d91906121bc565b90506000830361106b5768056bc75e2d631000009350505050611090565b82670de0b6b3a764000082611080919061214b565b61108a91906121bc565b93505050505b919050565b61109d611a74565b6110a76000611af2565b565b6000806110b583610e04565b91506110c0836110c7565b9050915091565b6000806000905060005b6003805490508110156111d4576000600382815481106110f4576110f36123fc565b5b9060005260206000200160009054906101000a900473ffffffffffffffffffffffffffffffffffffffff1690506000600460008773ffffffffffffffffffffffffffffffffffffffff1673ffffffffffffffffffffffffffffffffffffffff16815260200190815260200160002060008373ffffffffffffffffffffffffffffffffffffffff1673ffffffffffffffffffffffffffffffffffffffff16815260200190815260200160002054905060006111ae8383610f1b565b905080856111bc91906121ed565b945050505080806111cc9061242b565b9150506110d1565b5080915050919050565b6000600160009054906101000a900473ffffffffffffffffffffffffffffffffffffffff16905090565b605081565b60026020528060005260406000206000915054906101000a900473ffffffffffffffffffffffffffffffffffffffff1681565b6005602052816000526040600020602052806000526040600020600091509150505481565b600581565b611272611a74565b600080600380549050905060005b81811015611315578473ffffffffffffffffffffffffffffffffffffffff16600382815481106112b3576112b26123fc565b5b9060005260206000200160009054906101000a900473ffffffffffffffffffffffffffffffffffffffff1673ffffffffffffffffffffffffffffffffffffffff16036113025760019250611315565b808061130d9061242b565b915050611280565b508161137f576003849080600181540180825580915050600190039060005260206000200160009091909190916101000a81548173ffffffffffffffffffffffffffffffffffffffff021916908373ffffffffffffffffffffffffffffffffffffffff1602179055505b82600260008673ffffffffffffffffffffffffffffffffffffffff1673ffffffffffffffffffffffffffffffffffffffff16815260200190815260200160002060006101000a81548173ffffffffffffffffffffffffffffffffffffffff021916908373ffffffffffffffffffffffffffffffffffffffff1602179055508273ffffffffffffffffffffffffffffffffffffffff168473ffffffffffffffffffffffffffffffffffffffff167f4f9bd0d8360fd59a62c52cf8b386f7c7b65097c9e336e860d08ffb9df34067d160405160405180910390a350505050565b6114656118c7565b670de0b6b3a764000061147784611020565b106114b7576040517f08c379a00000000000000000000000000000000000000000000000000000000081526004016114ae906124bf565b60405180910390fd5b60006002600560008673ffffffffffffffffffffffffffffffffffffffff1673ffffffffffffffffffffffffffffffffffffffff16815260200190815260200160002060008573ffffffffffffffffffffffffffffffffffffffff1673ffffffffffffffffffffffffffffffffffffffff1681526020019081526020016000205461154291906121bc565b905060006115508483610f1b565b905060008111611595576040517f08c379a000000000000000000000000000000000000000000000000000000000815260040161158c9061252b565b60405180910390fd5b600060646005836115a6919061214b565b6115b091906121bc565b905060006115c98584846115c491906121ed565b6104ad565b90508473ffffffffffffffffffffffffffffffffffffffff168673ffffffffffffffffffffffffffffffffffffffff168873ffffffffffffffffffffffffffffffffffffffff167fcea6068021f706074af611c2a4b6b08820c5b8223a80149684c64c60ce7be3cc863360405161164192919061254b565b60405180910390a4611654878786611916565b61165f878683611bb8565b5050505061166b611a6a565b505050565b670de0b6b3a764000081565b611684611a74565b600073ffffffffffffffffffffffffffffffffffffffff168173ffffffffffffffffffffffffffffffffffffffff16036116f3576040517f08c379a00000000000000000000000000000000000000000000000000000000081526004016116ea906125e6565b60405180910390fd5b6116fc81611af2565b50565b6117076118c7565b8060008103611742576040517ff45911f000000000000000000000000000000000000000000000000000000000815260040160405180910390fd5b81600460003373ffffffffffffffffffffffffffffffffffffffff1673ffffffffffffffffffffffffffffffffffffffff16815260200190815260200160002060008573ffffffffffffffffffffffffffffffffffffffff1673ffffffffffffffffffffffffffffffffffffffff168152602001908152602001600020541015611801576040517f08c379a00000000000000000000000000000000000000000000000000000000081526004016117f890612652565b60405180910390fd5b818373ffffffffffffffffffffffffffffffffffffffff163373ffffffffffffffffffffffffffffffffffffffff167f9b1bfa7fa9ee420a16e124f794c35ac9f90472acc99140eb2f6447c714cad8eb60405160405180910390a4611867338484611bb8565b670de0b6b3a764000061187933611020565b10156118ba576040517f08c379a00000000000000000000000000000000000000000000000000000000081526004016118b1906123dc565b60405180910390fd5b506118c3611a6a565b5050565b60026000540361190c576040517f08c379a0000000000000000000000000000000000000000000000000000000008152600401611903906126be565b60405180910390fd5b6002600081905550565b80600560008573ffffffffffffffffffffffffffffffffffffffff1673ffffffffffffffffffffffffffffffffffffffff16815260200190815260200160002060008473ffffffffffffffffffffffffffffffffffffffff1673ffffffffffffffffffffffffffffffffffffffff16815260200190815260200160002060008282546119a291906126de565b9250508190555060008273ffffffffffffffffffffffffffffffffffffffff166323b872dd3330856040518463ffffffff1660e01b81526004016119e893929190612221565b6020604051808303816000875af1158015611a07573d6000803e3d6000fd5b505050506040513d601f19601f82011682018060405250810190611a2b9190612290565b905080611a64576040517f90b8ec1800000000000000000000000000000000000000000000000000000000815260040160405180910390fd5b50505050565b6001600081905550565b611a7c611dc9565b73ffffffffffffffffffffffffffffffffffffffff16611a9a6111de565b73ffffffffffffffffffffffffffffffffffffffff1614611af0576040517f08c379a0000000000000000000000000000000000000000000000000000000008152600401611ae79061275e565b60405180910390fd5b565b6000600160009054906101000a900473ffffffffffffffffffffffffffffffffffffffff16905081600160006101000a81548173ffffffffffffffffffffffffffffffffffffffff021916908373ffffffffffffffffffffffffffffffffffffffff1602179055508173ffffffffffffffffffffffffffffffffffffffff168173ffffffffffffffffffffffffffffffffffffffff167f8be0079c531659141344cd1fd0a4f28419497f9722a3daafe3b4186f6b6457e060405160405180910390a35050565b80600460008573ffffffffffffffffffffffffffffffffffffffff1673ffffffffffffffffffffffffffffffffffffffff16815260200190815260200160002060008473ffffffffffffffffffffffffffffffffffffffff1673ffffffffffffffffffffffffffffffffffffffff168152602001908152602001600020541015611c77576040517f08c379a0000000000000000000000000000000000000000000000000000000008152600401611c6e906127ca565b60405180910390fd5b80600460008573ffffffffffffffffffffffffffffffffffffffff1673ffffffffffffffffffffffffffffffffffffffff16815260200190815260200160002060008473ffffffffffffffffffffffffffffffffffffffff1673ffffffffffffffffffffffffffffffffffffffff1681526020019081526020016000206000828254611d0391906126de565b9250508190555060008273ffffffffffffffffffffffffffffffffffffffff1663a9059cbb33846040518363ffffffff1660e01b8152600401611d47929190612367565b6020604051808303816000875af1158015611d66573d6000803e3d6000fd5b505050506040513d601f19601f82011682018060405250810190611d8a9190612290565b905080611dc3576040517f90b8ec1800000000000000000000000000000000000000000000000000000000815260040160405180910390fd5b50505050565b600033905090565b600080fd5b6000819050919050565b611de981611dd6565b8114611df457600080fd5b50565b600081359050611e0681611de0565b92915050565b600060208284031215611e2257611e21611dd1565b5b6000611e3084828501611df7565b91505092915050565b600073ffffffffffffffffffffffffffffffffffffffff82169050919050565b6000611e6482611e39565b9050919050565b611e7481611e59565b82525050565b6000602082019050611e8f6000830184611e6b565b92915050565b611e9e81611e59565b8114611ea957600080fd5b50565b600081359050611ebb81611e95565b92915050565b60008060408385031215611ed857611ed7611dd1565b5b6000611ee685828601611eac565b9250506020611ef785828601611df7565b9150509250929050565b611f0a81611dd6565b82525050565b6000602082019050611f256000830184611f01565b92915050565b60008060408385031215611f4257611f41611dd1565b5b6000611f5085828601611eac565b9250506020611f6185828601611eac565b9150509250929050565b600060208284031215611f8157611f80611dd1565b5b6000611f8f84828501611eac565b91505092915050565b6000604082019050611fad6000830185611f01565b611fba6020830184611f01565b9392505050565b600080600060608486031215611fda57611fd9611dd1565b5b6000611fe886828701611eac565b9350506020611ff986828701611eac565b925050604061200a86828701611eac565b9150509250925092565b600069ffffffffffffffffffff82169050919050565b61203381612014565b811461203e57600080fd5b50565b6000815190506120508161202a565b92915050565b6000819050919050565b61206981612056565b811461207457600080fd5b50565b60008151905061208681612060565b92915050565b60008151905061209b81611de0565b92915050565b600080600080600060a086880312156120bd576120bc611dd1565b5b60006120cb88828901612041565b95505060206120dc88828901612077565b94505060406120ed8882890161208c565b93505060606120fe8882890161208c565b925050608061210f88828901612041565b9150509295509295909350565b7f4e487b7100000000000000000000000000000000000000000000000000000000600052601160045260246000fd5b600061215682611dd6565b915061216183611dd6565b925082820261216f81611dd6565b915082820484148315176121865761218561211c565b5b5092915050565b7f4e487b7100000000000000000000000000000000000000000000000000000000600052601260045260246000fd5b60006121c782611dd6565b91506121d283611dd6565b9250826121e2576121e161218d565b5b828204905092915050565b60006121f882611dd6565b915061220383611dd6565b925082820190508082111561221b5761221a61211c565b5b92915050565b60006060820190506122366000830186611e6b565b6122436020830185611e6b565b6122506040830184611f01565b949350505050565b60008115159050919050565b61226d81612258565b811461227857600080fd5b50565b60008151905061228a81612264565b92915050565b6000602082840312156122a6576122a5611dd1565b5b60006122b48482850161227b565b91505092915050565b6000602082840312156122d3576122d2611dd1565b5b60006122e18482850161208c565b91505092915050565b600082825260208201905092915050565b7f4e6f7420656e6f75676820746f6b656e7320746f20626f72726f770000000000600082015250565b6000612331601b836122ea565b915061233c826122fb565b602082019050919050565b6000602082019050818103600083015261236081612324565b9050919050565b600060408201905061237c6000830185611e6b565b6123896020830184611f01565b9392505050565b7f506c6174666f726d2077696c6c20676f20696e736f6c76656e74210000000000600082015250565b60006123c6601b836122ea565b91506123d182612390565b602082019050919050565b600060208201905081810360008301526123f5816123b9565b9050919050565b7f4e487b7100000000000000000000000000000000000000000000000000000000600052603260045260246000fd5b600061243682611dd6565b91507fffffffffffffffffffffffffffffffffffffffffffffffffffffffffffffffff82036124685761246761211c565b5b600182019050919050565b7f4163636f756e742063616e2774206265206c6971756964617465642100000000600082015250565b60006124a9601c836122ea565b91506124b482612473565b602082019050919050565b600060208201905081810360008301526124d88161249c565b9050919050565b7f43686f6f7365206120646966666572656e74207265706179546f6b656e210000600082015250565b6000612515601e836122ea565b9150612520826124df565b602082019050919050565b6000602082019050818103600083015261254481612508565b9050919050565b60006040820190506125606000830185611f01565b61256d6020830184611e6b565b9392505050565b7f4f776e61626c653a206e6577206f776e657220697320746865207a65726f206160008201527f6464726573730000000000000000000000000000000000000000000000000000602082015250565b60006125d06026836122ea565b91506125db82612574565b604082019050919050565b600060208201905081810360008301526125ff816125c3565b9050919050565b7f4e6f7420656e6f7567682066756e647300000000000000000000000000000000600082015250565b600061263c6010836122ea565b915061264782612606565b602082019050919050565b6000602082019050818103600083015261266b8161262f565b9050919050565b7f5265656e7472616e637947756172643a207265656e7472616e742063616c6c00600082015250565b60006126a8601f836122ea565b91506126b382612672565b602082019050919050565b600060208201905081810360008301526126d78161269b565b9050919050565b60006126e982611dd6565b91506126f483611dd6565b925082820390508181111561270c5761270b61211c565b5b92915050565b7f4f776e61626c653a2063616c6c6572206973206e6f7420746865206f776e6572600082015250565b60006127486020836122ea565b915061275382612712565b602082019050919050565b600060208201905081810360008301526127778161273b565b9050919050565b7f4e6f7420656e6f7567682066756e647320746f20776974686472617700000000600082015250565b60006127b4601c836122ea565b91506127bf8261277e565b602082019050919050565b600060208201905081810360008301526127e3816127a7565b905091905056fea264697066735822122079011cfbce50ba741169635125e98ba0e2ec650fc6c9ef6690b803528af003a264736f6c63430008110033",
  "immutableReferences": {},
  "source": "// SPDX-License-Identifier: MIT\n// This contract is not audited!!!\npragma solidity ^0.8.7;\n\nimport \"@openzeppelin/contracts/security/ReentrancyGuard.sol\";\nimport \"@openzeppelin/contracts/access/Ownable.sol\";\nimport \"@chainlink/contracts/src/v0.8/interfaces/AggregatorV3Interface.sol\";\nimport \"@openzeppelin/contracts/token/ERC20/IERC20.sol\";\n// import \"hardhat/console.sol\";\n\nerror TransferFailed();\nerror TokenNotAllowed(address token);\nerror NeedsMoreThanZero();\n\ncontract Lending is ReentrancyGuard, Ownable {\n    mapping(address => address) public s_tokenToPriceFeed;\n    address[] public s_allowedTokens;\n    // Account -> Token -> Amount\n    mapping(address => mapping(address => uint256)) public s_accountToTokenDeposits;\n    // Account -> Token -> Amount\n    mapping(address => mapping(address => uint256)) public s_accountToTokenBorrows;\n\n    // 5% Liquidation Reward\n    uint256 public constant LIQUIDATION_REWARD = 5;\n    // At 80% Loan to Value Ratio, the loan can be liquidated\n    uint256 public constant LIQUIDATION_THRESHOLD = 80;\n    uint256 public constant MIN_HEALH_FACTOR = 1e18;\n\n    event AllowedTokenSet(address indexed token, address indexed priceFeed);\n    event Deposit(address indexed account, address indexed token, uint256 indexed amount);\n    event Borrow(address indexed account, address indexed token, uint256 indexed amount);\n    event Withdraw(address indexed account, address indexed token, uint256 indexed amount);\n    event Repay(address indexed account, address indexed token, uint256 indexed amount);\n    event Liquidate(\n        address indexed account,\n        address indexed repayToken,\n        address indexed rewardToken,\n        uint256 halfDebtInEth,\n        address liquidator\n    );\n\n    function deposit(address token, uint256 amount)\n        external\n        nonReentrant\n        isAllowedToken(token)\n        moreThanZero(amount)\n    {\n        emit Deposit(msg.sender, token, amount);\n        s_accountToTokenDeposits[msg.sender][token] += amount;\n        bool success = IERC20(token).transferFrom(msg.sender, address(this), amount);\n        if (!success) revert TransferFailed();\n    }\n\n    function withdraw(address token, uint256 amount) external nonReentrant moreThanZero(amount) {\n        require(s_accountToTokenDeposits[msg.sender][token] >= amount, \"Not enough funds\");\n        emit Withdraw(msg.sender, token, amount);\n        _pullFunds(msg.sender, token, amount);\n        require(healthFactor(msg.sender) >= MIN_HEALH_FACTOR, \"Platform will go insolvent!\");\n    }\n\n    function _pullFunds(\n        address account,\n        address token,\n        uint256 amount\n    ) private {\n        require(s_accountToTokenDeposits[account][token] >= amount, \"Not enough funds to withdraw\");\n        s_accountToTokenDeposits[account][token] -= amount;\n        bool success = IERC20(token).transfer(msg.sender, amount);\n        if (!success) revert TransferFailed();\n    }\n\n    function borrow(address token, uint256 amount)\n        external\n        nonReentrant\n        isAllowedToken(token)\n        moreThanZero(amount)\n    {\n        require(IERC20(token).balanceOf(address(this)) >= amount, \"Not enough tokens to borrow\");\n        s_accountToTokenBorrows[msg.sender][token] += amount;\n        emit Borrow(msg.sender, token, amount);\n        bool success = IERC20(token).transfer(msg.sender, amount);\n        if (!success) revert TransferFailed();\n        require(healthFactor(msg.sender) >= MIN_HEALH_FACTOR, \"Platform will go insolvent!\");\n    }\n\n    function liquidate(\n        address account,\n        address repayToken,\n        address rewardToken\n    ) external nonReentrant {\n        require(healthFactor(account) < MIN_HEALH_FACTOR, \"Account can't be liquidated!\");\n        uint256 halfDebt = s_accountToTokenBorrows[account][repayToken] / 2;\n        uint256 halfDebtInEth = getEthValue(repayToken, halfDebt);\n        require(halfDebtInEth > 0, \"Choose a different repayToken!\");\n        uint256 rewardAmountInEth = (halfDebtInEth * LIQUIDATION_REWARD) / 100;\n        uint256 totalRewardAmountInRewardToken = getTokenValueFromEth(\n            rewardToken,\n            rewardAmountInEth + halfDebtInEth\n        );\n        emit Liquidate(account, repayToken, rewardToken, halfDebtInEth, msg.sender);\n        _repay(account, repayToken, halfDebt);\n        _pullFunds(account, rewardToken, totalRewardAmountInRewardToken);\n    }\n\n    function repay(address token, uint256 amount)\n        external\n        nonReentrant\n        isAllowedToken(token)\n        moreThanZero(amount)\n    {\n        emit Repay(msg.sender, token, amount);\n        _repay(msg.sender, token, amount);\n    }\n\n    function _repay(\n        address account,\n        address token,\n        uint256 amount\n    ) private {\n        // require(s_accountToTokenBorrows[account][token] - amount >= 0, \"Repayed too much!\");\n        // On 0.8+ of solidity, it auto reverts math that would drop below 0 for a uint256\n        s_accountToTokenBorrows[account][token] -= amount;\n        bool success = IERC20(token).transferFrom(msg.sender, address(this), amount);\n        if (!success) revert TransferFailed();\n    }\n\n    function getAccountInformation(address user)\n        public\n        view\n        returns (uint256 borrowedValueInETH, uint256 collateralValueInETH)\n    {\n        borrowedValueInETH = getAccountBorrowedValue(user);\n        collateralValueInETH = getAccountCollateralValue(user);\n    }\n\n    function getAccountCollateralValue(address user) public view returns (uint256) {\n        uint256 totalCollateralValueInETH = 0;\n        for (uint256 index = 0; index < s_allowedTokens.length; index++) {\n            address token = s_allowedTokens[index];\n            uint256 amount = s_accountToTokenDeposits[user][token];\n            uint256 valueInEth = getEthValue(token, amount);\n            totalCollateralValueInETH += valueInEth;\n        }\n        return totalCollateralValueInETH;\n    }\n\n    function getAccountBorrowedValue(address user) public view returns (uint256) {\n        uint256 totalBorrowsValueInETH = 0;\n        for (uint256 index = 0; index < s_allowedTokens.length; index++) {\n            address token = s_allowedTokens[index];\n            uint256 amount = s_accountToTokenBorrows[user][token];\n            uint256 valueInEth = getEthValue(token, amount);\n            totalBorrowsValueInETH += valueInEth;\n        }\n        return totalBorrowsValueInETH;\n    }\n\n    function getEthValue(address token, uint256 amount) public view returns (uint256) {\n        AggregatorV3Interface priceFeed = AggregatorV3Interface(s_tokenToPriceFeed[token]);\n        (, int256 price, , , ) = priceFeed.latestRoundData();\n        // 2000 DAI = 1 ETH\n        // 0.002 ETH per DAI\n        // price will be something like 20000000000000000\n        // So we multiply the price by the amount, and then divide by 1e18\n        // 2000 DAI * (0.002 ETH / 1 DAI) = 0.002 ETH\n        // (2000 * 10 ** 18) * ((0.002 * 10 ** 18) / 10 ** 18) = 0.002 ETH\n        return (uint256(price) * amount) / 1e18;\n    }\n\n    function getTokenValueFromEth(address token, uint256 amount) public view returns (uint256) {\n        AggregatorV3Interface priceFeed = AggregatorV3Interface(s_tokenToPriceFeed[token]);\n        (, int256 price, , , ) = priceFeed.latestRoundData();\n        return (amount * 1e18) / uint256(price);\n    }\n\n    function healthFactor(address account) public view returns (uint256) {\n        (uint256 borrowedValueInEth, uint256 collateralValueInEth) = getAccountInformation(account);\n        uint256 collateralAdjustedForThreshold = (collateralValueInEth * LIQUIDATION_THRESHOLD) /\n            100;\n        if (borrowedValueInEth == 0) return 100e18;\n        return (collateralAdjustedForThreshold * 1e18) / borrowedValueInEth;\n    }\n\n    /********************/\n    /* Modifiers */\n    /********************/\n\n    modifier isAllowedToken(address token) {\n        if (s_tokenToPriceFeed[token] == address(0)) revert TokenNotAllowed(token);\n        _;\n    }\n\n    modifier moreThanZero(uint256 amount) {\n        if (amount == 0) {\n            revert NeedsMoreThanZero();\n        }\n        _;\n    }\n\n    /********************/\n    /* DAO / OnlyOwner Functions */\n    /********************/\n    function setAllowedToken(address token, address priceFeed) external onlyOwner {\n        bool foundToken = false;\n        uint256 allowedTokensLength = s_allowedTokens.length;\n        for (uint256 index = 0; index < allowedTokensLength; index++) {\n            if (s_allowedTokens[index] == token) {\n                foundToken = true;\n                break;\n            }\n        }\n        if (!foundToken) {\n            s_allowedTokens.push(token);\n        }\n        s_tokenToPriceFeed[token] = priceFeed;\n        emit AllowedTokenSet(token, priceFeed);\n    }\n\n    /********************/\n    /* Getter Functions */\n    /********************/\n    // Ideally, we'd have getter functions for all our s_ variables we want exposed, and set them all to private.\n    // But, for the purpose of this demo, we've left them public for simplicity.\n}\n",
  "sourcePath": "/home/moneyhoardermike/ChainLink/blocks-of-passion-protocol/src/contracts/Lending.sol",
  "compiler": {
    "name": "solc",
    "version": "0.8.17+commit.8df45f5f.Emscripten.clang"
  },
  "schemaVersion": "3.4.10",
  "updatedAt": "2022-11-18T03:53:16.312Z",
  "devdoc": {
    "kind": "dev",
    "methods": {
      "owner()": {
        "details": "Returns the address of the current owner."
      },
      "renounceOwnership()": {
        "details": "Leaves the contract without owner. It will not be possible to call `onlyOwner` functions anymore. Can only be called by the current owner. NOTE: Renouncing ownership will leave the contract without an owner, thereby removing any functionality that is only available to the owner."
      },
      "transferOwnership(address)": {
        "details": "Transfers ownership of the contract to a new account (`newOwner`). Can only be called by the current owner."
      }
    },
    "version": 1
  },
  "userdoc": {
    "kind": "user",
    "methods": {},
    "version": 1
  }
}