{
  "contractName": "Options",
  "abi": [
    {
      "inputs": [
        {
          "internalType": "address",
          "name": "_priceFeed",
          "type": "address"
        },
        {
          "internalType": "address",
          "name": "_daiAddr",
          "type": "address"
        }
      ],
      "stateMutability": "nonpayable",
      "type": "constructor"
    },
    {
      "inputs": [],
      "name": "NeedsMoreThanZero",
      "type": "error"
    },
    {
      "inputs": [
        {
          "internalType": "uint256",
          "name": "_optionId",
          "type": "uint256"
        }
      ],
      "name": "OptionNotValid",
      "type": "error"
    },
    {
      "inputs": [],
      "name": "TransferFailed",
      "type": "error"
    },
    {
      "anonymous": false,
      "inputs": [
        {
          "indexed": false,
          "internalType": "address",
          "name": "buyer",
          "type": "address"
        },
        {
          "indexed": false,
          "internalType": "uint256",
          "name": "id",
          "type": "uint256"
        }
      ],
      "name": "CallOptionBought",
      "type": "event"
    },
    {
      "anonymous": false,
      "inputs": [
        {
          "indexed": false,
          "internalType": "address",
          "name": "buyer",
          "type": "address"
        },
        {
          "indexed": false,
          "internalType": "uint256",
          "name": "id",
          "type": "uint256"
        }
      ],
      "name": "CallOptionExercised",
      "type": "event"
    },
    {
      "anonymous": false,
      "inputs": [
        {
          "indexed": false,
          "internalType": "uint256",
          "name": "id",
          "type": "uint256"
        },
        {
          "indexed": false,
          "internalType": "address",
          "name": "writer",
          "type": "address"
        },
        {
          "indexed": false,
          "internalType": "uint256",
          "name": "amount",
          "type": "uint256"
        },
        {
          "indexed": false,
          "internalType": "uint256",
          "name": "strike",
          "type": "uint256"
        },
        {
          "indexed": false,
          "internalType": "uint256",
          "name": "premium",
          "type": "uint256"
        },
        {
          "indexed": false,
          "internalType": "uint256",
          "name": "expiration",
          "type": "uint256"
        },
        {
          "indexed": false,
          "internalType": "uint256",
          "name": "value",
          "type": "uint256"
        }
      ],
      "name": "CallOptionOpen",
      "type": "event"
    },
    {
      "anonymous": false,
      "inputs": [
        {
          "indexed": false,
          "internalType": "address",
          "name": "writer",
          "type": "address"
        },
        {
          "indexed": false,
          "internalType": "uint256",
          "name": "id",
          "type": "uint256"
        },
        {
          "indexed": false,
          "internalType": "uint256",
          "name": "value",
          "type": "uint256"
        }
      ],
      "name": "FundsRetrieved",
      "type": "event"
    },
    {
      "anonymous": false,
      "inputs": [
        {
          "indexed": false,
          "internalType": "address",
          "name": "buyer",
          "type": "address"
        },
        {
          "indexed": false,
          "internalType": "uint256",
          "name": "Id",
          "type": "uint256"
        }
      ],
      "name": "OptionExpiresWorthless",
      "type": "event"
    },
    {
      "anonymous": false,
      "inputs": [
        {
          "indexed": true,
          "internalType": "address",
          "name": "previousOwner",
          "type": "address"
        },
        {
          "indexed": true,
          "internalType": "address",
          "name": "newOwner",
          "type": "address"
        }
      ],
      "name": "OwnershipTransferred",
      "type": "event"
    },
    {
      "anonymous": false,
      "inputs": [
        {
          "indexed": false,
          "internalType": "address",
          "name": "buyer",
          "type": "address"
        },
        {
          "indexed": false,
          "internalType": "uint256",
          "name": "id",
          "type": "uint256"
        }
      ],
      "name": "PutOptionBought",
      "type": "event"
    },
    {
      "anonymous": false,
      "inputs": [
        {
          "indexed": false,
          "internalType": "address",
          "name": "buyer",
          "type": "address"
        },
        {
          "indexed": false,
          "internalType": "uint256",
          "name": "id",
          "type": "uint256"
        }
      ],
      "name": "PutOptionExercised",
      "type": "event"
    },
    {
      "anonymous": false,
      "inputs": [
        {
          "indexed": false,
          "internalType": "uint256",
          "name": "id",
          "type": "uint256"
        },
        {
          "indexed": false,
          "internalType": "address",
          "name": "writer",
          "type": "address"
        },
        {
          "indexed": false,
          "internalType": "uint256",
          "name": "amount",
          "type": "uint256"
        },
        {
          "indexed": false,
          "internalType": "uint256",
          "name": "strike",
          "type": "uint256"
        },
        {
          "indexed": false,
          "internalType": "uint256",
          "name": "premium",
          "type": "uint256"
        },
        {
          "indexed": false,
          "internalType": "uint256",
          "name": "expiration",
          "type": "uint256"
        },
        {
          "indexed": false,
          "internalType": "uint256",
          "name": "value",
          "type": "uint256"
        }
      ],
      "name": "PutOptionOpen",
      "type": "event"
    },
    {
      "inputs": [],
      "name": "owner",
      "outputs": [
        {
          "internalType": "address",
          "name": "",
          "type": "address"
        }
      ],
      "stateMutability": "view",
      "type": "function"
    },
    {
      "inputs": [],
      "name": "renounceOwnership",
      "outputs": [],
      "stateMutability": "nonpayable",
      "type": "function"
    },
    {
      "inputs": [],
      "name": "s_optionCounter",
      "outputs": [
        {
          "internalType": "uint256",
          "name": "",
          "type": "uint256"
        }
      ],
      "stateMutability": "view",
      "type": "function"
    },
    {
      "inputs": [],
      "name": "s_optionId",
      "outputs": [
        {
          "internalType": "uint256",
          "name": "",
          "type": "uint256"
        }
      ],
      "stateMutability": "view",
      "type": "function"
    },
    {
      "inputs": [
        {
          "internalType": "uint256",
          "name": "",
          "type": "uint256"
        }
      ],
      "name": "s_optionIdToOption",
      "outputs": [
        {
          "internalType": "address",
          "name": "writer",
          "type": "address"
        },
        {
          "internalType": "address",
          "name": "buyer",
          "type": "address"
        },
        {
          "internalType": "uint256",
          "name": "amount",
          "type": "uint256"
        },
        {
          "internalType": "uint256",
          "name": "strike",
          "type": "uint256"
        },
        {
          "internalType": "uint256",
          "name": "premiumDue",
          "type": "uint256"
        },
        {
          "internalType": "uint256",
          "name": "expiration",
          "type": "uint256"
        },
        {
          "internalType": "uint256",
          "name": "collateral",
          "type": "uint256"
        },
        {
          "internalType": "enum Options.OptionState",
          "name": "optionState",
          "type": "uint8"
        },
        {
          "internalType": "enum Options.OptionType",
          "name": "optionType",
          "type": "uint8"
        }
      ],
      "stateMutability": "view",
      "type": "function"
    },
    {
      "inputs": [
        {
          "internalType": "address",
          "name": "",
          "type": "address"
        }
      ],
      "name": "s_tokenToEthFeed",
      "outputs": [
        {
          "internalType": "address",
          "name": "",
          "type": "address"
        }
      ],
      "stateMutability": "view",
      "type": "function"
    },
    {
      "inputs": [
        {
          "internalType": "address",
          "name": "",
          "type": "address"
        },
        {
          "internalType": "uint256",
          "name": "",
          "type": "uint256"
        }
      ],
      "name": "s_tradersPosition",
      "outputs": [
        {
          "internalType": "uint256",
          "name": "",
          "type": "uint256"
        }
      ],
      "stateMutability": "view",
      "type": "function"
    },
    {
      "inputs": [
        {
          "internalType": "address",
          "name": "newOwner",
          "type": "address"
        }
      ],
      "name": "transferOwnership",
      "outputs": [],
      "stateMutability": "nonpayable",
      "type": "function"
    },
    {
      "inputs": [
        {
          "internalType": "uint256",
          "name": "_amount",
          "type": "uint256"
        },
        {
          "internalType": "uint256",
          "name": "_strike",
          "type": "uint256"
        },
        {
          "internalType": "uint256",
          "name": "_premiumDue",
          "type": "uint256"
        },
        {
          "internalType": "uint256",
          "name": "_daysToExpiry",
          "type": "uint256"
        },
        {
          "internalType": "uint256",
          "name": "_daiAmount",
          "type": "uint256"
        }
      ],
      "name": "writeCallOption",
      "outputs": [],
      "stateMutability": "payable",
      "type": "function"
    },
    {
      "inputs": [
        {
          "internalType": "uint256",
          "name": "_optionId",
          "type": "uint256"
        }
      ],
      "name": "buyCallOption",
      "outputs": [],
      "stateMutability": "nonpayable",
      "type": "function"
    },
    {
      "inputs": [
        {
          "internalType": "uint256",
          "name": "_amount",
          "type": "uint256"
        },
        {
          "internalType": "uint256",
          "name": "_strike",
          "type": "uint256"
        },
        {
          "internalType": "uint256",
          "name": "_premiumDue",
          "type": "uint256"
        },
        {
          "internalType": "uint256",
          "name": "_daysToExpiry",
          "type": "uint256"
        },
        {
          "internalType": "uint256",
          "name": "_daiAmount",
          "type": "uint256"
        }
      ],
      "name": "writePutOption",
      "outputs": [],
      "stateMutability": "payable",
      "type": "function"
    },
    {
      "inputs": [
        {
          "internalType": "uint256",
          "name": "_optionId",
          "type": "uint256"
        }
      ],
      "name": "buyPutOption",
      "outputs": [],
      "stateMutability": "nonpayable",
      "type": "function"
    },
    {
      "inputs": [
        {
          "internalType": "uint256",
          "name": "_optionId",
          "type": "uint256"
        },
        {
          "internalType": "uint256",
          "name": "_daiAmount",
          "type": "uint256"
        }
      ],
      "name": "exerciseCallOption",
      "outputs": [],
      "stateMutability": "payable",
      "type": "function"
    },
    {
      "inputs": [
        {
          "internalType": "uint256",
          "name": "_optionId",
          "type": "uint256"
        },
        {
          "internalType": "uint256",
          "name": "_daiAmount",
          "type": "uint256"
        }
      ],
      "name": "exercisePutOption",
      "outputs": [],
      "stateMutability": "payable",
      "type": "function"
    },
    {
      "inputs": [
        {
          "internalType": "uint256",
          "name": "_optionId",
          "type": "uint256"
        },
        {
          "internalType": "uint256",
          "name": "_daiAmount",
          "type": "uint256"
        }
      ],
      "name": "optionExpiresWorthless",
      "outputs": [],
      "stateMutability": "nonpayable",
      "type": "function"
    },
    {
      "inputs": [
        {
          "internalType": "uint256",
          "name": "_optionId",
          "type": "uint256"
        }
      ],
      "name": "retrieveExpiredFunds",
      "outputs": [],
      "stateMutability": "nonpayable",
      "type": "function"
    },
    {
      "inputs": [
        {
          "internalType": "uint256",
          "name": "_amountInDai",
          "type": "uint256"
        }
      ],
      "name": "getPriceFeed",
      "outputs": [
        {
          "internalType": "uint256",
          "name": "",
          "type": "uint256"
        }
      ],
      "stateMutability": "view",
      "type": "function"
    }
  ],
  "bytecode": "0x60806040523480156200001157600080fd5b506040516200463038038062004630833981810160405281019062000037919062000221565b60016000819055506200005f62000053620000e960201b60201c565b620000f160201b60201c565b81600260006101000a81548173ffffffffffffffffffffffffffffffffffffffff021916908373ffffffffffffffffffffffffffffffffffffffff16021790555080600360006101000a81548173ffffffffffffffffffffffffffffffffffffffff021916908373ffffffffffffffffffffffffffffffffffffffff160217905550505062000268565b600033905090565b6000600160009054906101000a900473ffffffffffffffffffffffffffffffffffffffff16905081600160006101000a81548173ffffffffffffffffffffffffffffffffffffffff021916908373ffffffffffffffffffffffffffffffffffffffff1602179055508173ffffffffffffffffffffffffffffffffffffffff168173ffffffffffffffffffffffffffffffffffffffff167f8be0079c531659141344cd1fd0a4f28419497f9722a3daafe3b4186f6b6457e060405160405180910390a35050565b600080fd5b600073ffffffffffffffffffffffffffffffffffffffff82169050919050565b6000620001e982620001bc565b9050919050565b620001fb81620001dc565b81146200020757600080fd5b50565b6000815190506200021b81620001f0565b92915050565b600080604083850312156200023b576200023a620001b7565b5b60006200024b858286016200020a565b92505060206200025e858286016200020a565b9150509250929050565b6143b880620002786000396000f3fe6080604052600436106100fe5760003560e01c8063790eee2e11610095578063b9c88e1a11610064578063b9c88e1a146102fe578063d5ad66391461031a578063d811191b14610345578063f2fde38b1461036e578063f91d443f14610397576100fe565b8063790eee2e1461026557806389a396351461028e5780638da5cb5b146102b7578063a7419250146102e2576100fe565b8063589ca814116100d1578063589ca8141461018f5780636825834d146101d4578063715018a61461021157806378ea768314610228576100fe565b806306411a821461010357806308f1f9621461011f57806309c4cea41461013b578063411939ef14610164575b600080fd5b61011d600480360381019061011891906132f0565b6103d4565b005b61013960048036038101906101349190613330565b610ac9565b005b34801561014757600080fd5b50610162600480360381019061015d91906133ab565b610e84565b005b34801561017057600080fd5b506101796114c9565b60405161018691906133e7565b60405180910390f35b34801561019b57600080fd5b506101b660048036038101906101b191906133ab565b6114cf565b6040516101cb99989796959493929190613502565b60405180910390f35b3480156101e057600080fd5b506101fb60048036038101906101f691906135bb565b611577565b60405161020891906135e8565b60405180910390f35b34801561021d57600080fd5b506102266115aa565b005b34801561023457600080fd5b5061024f600480360381019061024a9190613603565b6115be565b60405161025c91906133e7565b60405180910390f35b34801561027157600080fd5b5061028c600480360381019061028791906133ab565b6115ef565b005b34801561029a57600080fd5b506102b560048036038101906102b091906132f0565b6119cb565b005b3480156102c357600080fd5b506102cc611eee565b6040516102d991906135e8565b60405180910390f35b6102fc60048036038101906102f791906132f0565b611f18565b005b61031860048036038101906103139190613330565b6125c6565b005b34801561032657600080fd5b5061032f612980565b60405161033c91906133e7565b60405180910390f35b34801561035157600080fd5b5061036c600480360381019061036791906133ab565b612986565b005b34801561037a57600080fd5b50610395600480360381019061039091906135bb565b612fcc565b005b3480156103a357600080fd5b506103be60048036038101906103b991906133ab565b61304f565b6040516103cb91906133e7565b60405180910390f35b81600073ffffffffffffffffffffffffffffffffffffffff166007600083815260200190815260200160002060000160009054906101000a900473ffffffffffffffffffffffffffffffffffffffff1673ffffffffffffffffffffffffffffffffffffffff160361047c57806040517fa7a8633400000000000000000000000000000000000000000000000000000000815260040161047391906133e7565b60405180910390fd5b610484613110565b600060076000858152602001908152602001600020604051806101200160405290816000820160009054906101000a900473ffffffffffffffffffffffffffffffffffffffff1673ffffffffffffffffffffffffffffffffffffffff1673ffffffffffffffffffffffffffffffffffffffff1681526020016001820160009054906101000a900473ffffffffffffffffffffffffffffffffffffffff1673ffffffffffffffffffffffffffffffffffffffff1673ffffffffffffffffffffffffffffffffffffffff16815260200160028201548152602001600382015481526020016004820154815260200160058201548152602001600682015481526020016007820160009054906101000a900460ff1660038111156105a8576105a7613443565b5b60038111156105ba576105b9613443565b5b81526020016007820160019054906101000a900460ff1660018111156105e3576105e2613443565b5b60018111156105f5576105f4613443565b5b815250509050806020015173ffffffffffffffffffffffffffffffffffffffff163373ffffffffffffffffffffffffffffffffffffffff161461066d576040517f08c379a0000000000000000000000000000000000000000000000000000000008152600401610664906136a0565b60405180910390fd5b6001600381111561068157610680613443565b5b8160e00151600381111561069857610697613443565b5b146106d8576040517f08c379a00000000000000000000000000000000000000000000000000000000081526004016106cf9061370c565b60405180910390fd5b428160a001511061071e576040517f08c379a000000000000000000000000000000000000000000000000000000000815260040161071590613778565b60405180910390fd5b60006107298461304f565b826040015161073891906137c7565b9050600081856107489190613838565b905082606001518111610790576040517f08c379a0000000000000000000000000000000000000000000000000000000008152600401610787906138b5565b60405180910390fd5b6000600360009054906101000a900473ffffffffffffffffffffffffffffffffffffffff1673ffffffffffffffffffffffffffffffffffffffff166323b872dd333087606001516040518463ffffffff1660e01b81526004016107f5939291906138d5565b6020604051808303816000875af1158015610814573d6000803e3d6000fd5b505050506040513d601f19601f820116820180604052508101906108389190613944565b905080610871576040517f90b8ec1800000000000000000000000000000000000000000000000000000000815260040160405180910390fd5b8360c001514710156108b8576040517f08c379a00000000000000000000000000000000000000000000000000000000081526004016108af906139bd565b60405180910390fd5b3373ffffffffffffffffffffffffffffffffffffffff168460c001516040516108e090613a0e565b60006040518083038185875af1925050503d806000811461091d576040519150601f19603f3d011682016040523d82523d6000602084013e610922565b606091505b5050809150508061095f576040517f90b8ec1800000000000000000000000000000000000000000000000000000000815260040160405180910390fd5b600360009054906101000a900473ffffffffffffffffffffffffffffffffffffffff1673ffffffffffffffffffffffffffffffffffffffff1663a9059cbb856000015186606001516040518363ffffffff1660e01b81526004016109c4929190613a23565b6020604051808303816000875af11580156109e3573d6000803e3d6000fd5b505050506040513d601f19601f82011682018060405250810190610a079190613944565b905080610a40576040517f90b8ec1800000000000000000000000000000000000000000000000000000000815260040160405180910390fd5b60036007600089815260200190815260200160002060070160006101000a81548160ff02191690836003811115610a7a57610a79613443565b5b02179055507f4594c47db0c98244c77381117521b87ef447039f12e475a6e144746980dddf723388604051610ab0929190613a23565b60405180910390a150505050610ac461315f565b505050565b848484600083111580610add575060008211155b80610ae9575060008111155b15610b20576040517ff45911f000000000000000000000000000000000000000000000000000000000815260040160405180910390fd5b6000610b2b8561304f565b89610b3691906137c7565b905060008186610b469190613838565b9050813414610b8a576040517f08c379a0000000000000000000000000000000000000000000000000000000008152600401610b8190613abe565b60405180910390fd5b888114610bcc576040517f08c379a0000000000000000000000000000000000000000000000000000000008152600401610bc390613b2a565b60405180910390fd5b6040518061012001604052803373ffffffffffffffffffffffffffffffffffffffff168152602001600073ffffffffffffffffffffffffffffffffffffffff1681526020018b81526020018a81526020018981526020018842610c2f9190613b4a565b815260200134815260200160006003811115610c4e57610c4d613443565b5b815260200160006001811115610c6757610c66613443565b5b81525060076000600454815260200190815260200160002060008201518160000160006101000a81548173ffffffffffffffffffffffffffffffffffffffff021916908373ffffffffffffffffffffffffffffffffffffffff16021790555060208201518160010160006101000a81548173ffffffffffffffffffffffffffffffffffffffff021916908373ffffffffffffffffffffffffffffffffffffffff16021790555060408201518160020155606082015181600301556080820151816004015560a0820151816005015560c0820151816006015560e08201518160070160006101000a81548160ff02191690836003811115610d6a57610d69613443565b5b02179055506101008201518160070160016101000a81548160ff02191690836001811115610d9b57610d9a613443565b5b0217905550905050600860003373ffffffffffffffffffffffffffffffffffffffff1673ffffffffffffffffffffffffffffffffffffffff168152602001908152602001600020600454908060018154018082558091505060019003906000526020600020016000909190919091505560046000815480929190610e1e90613b7e565b919050556005819055507fb4d6d48bb8d143ce2746fb4bc49f19572e5cba3d7104586d38902e0e5e0a293d600554338c8c8c8c42610e5c9190613b4a565b34604051610e709796959493929190613bc6565b60405180910390a150505050505050505050565b80600073ffffffffffffffffffffffffffffffffffffffff166007600083815260200190815260200160002060000160009054906101000a900473ffffffffffffffffffffffffffffffffffffffff1673ffffffffffffffffffffffffffffffffffffffff1603610f2c57806040517fa7a86334000000000000000000000000000000000000000000000000000000008152600401610f2391906133e7565b60405180910390fd5b8160006003811115610f4157610f40613443565b5b6007600083815260200190815260200160002060070160009054906101000a900460ff166003811115610f7757610f76613443565b5b141580610f995750426007600083815260200190815260200160002060050154115b15610fdb57806040517fa7a86334000000000000000000000000000000000000000000000000000000008152600401610fd291906133e7565b60405180910390fd5b610fe3613110565b600060076000858152602001908152602001600020604051806101200160405290816000820160009054906101000a900473ffffffffffffffffffffffffffffffffffffffff1673ffffffffffffffffffffffffffffffffffffffff1673ffffffffffffffffffffffffffffffffffffffff1681526020016001820160009054906101000a900473ffffffffffffffffffffffffffffffffffffffff1673ffffffffffffffffffffffffffffffffffffffff1673ffffffffffffffffffffffffffffffffffffffff16815260200160028201548152602001600382015481526020016004820154815260200160058201548152602001600682015481526020016007820160009054906101000a900460ff16600381111561110757611106613443565b5b600381111561111957611118613443565b5b81526020016007820160019054906101000a900460ff16600181111561114257611141613443565b5b600181111561115457611153613443565b5b81525050905060018081111561116d5761116c613443565b5b816101000151600181111561118557611184613443565b5b146111c5576040517f08c379a00000000000000000000000000000000000000000000000000000000081526004016111bc90613c81565b60405180910390fd5b6000600360009054906101000a900473ffffffffffffffffffffffffffffffffffffffff1673ffffffffffffffffffffffffffffffffffffffff166323b872dd333085608001516040518463ffffffff1660e01b815260040161122a939291906138d5565b6020604051808303816000875af1158015611249573d6000803e3d6000fd5b505050506040513d601f19601f8201168201806040525081019061126d9190613944565b9050806112a6576040517f90b8ec1800000000000000000000000000000000000000000000000000000000815260040160405180910390fd5b600360009054906101000a900473ffffffffffffffffffffffffffffffffffffffff1673ffffffffffffffffffffffffffffffffffffffff1663a9059cbb836000015184608001516040518363ffffffff1660e01b815260040161130b929190613a23565b6020604051808303816000875af115801561132a573d6000803e3d6000fd5b505050506040513d601f19601f8201168201806040525081019061134e9190613944565b905080611387576040517f90b8ec1800000000000000000000000000000000000000000000000000000000815260040160405180910390fd5b336007600087815260200190815260200160002060010160006101000a81548173ffffffffffffffffffffffffffffffffffffffff021916908373ffffffffffffffffffffffffffffffffffffffff16021790555060016007600087815260200190815260200160002060070160006101000a81548160ff0219169083600381111561141657611415613443565b5b0217905550600860003373ffffffffffffffffffffffffffffffffffffffff1673ffffffffffffffffffffffffffffffffffffffff1681526020019081526020016000208590806001815401808255809150506001900390600052602060002001600090919091909150557f37ec53526bc2576804345cb5bc1432fea67238ddbbdfbcc44972f115a50aaeb833866040516114b2929190613a23565b60405180910390a150506114c461315f565b505050565b60045481565b60076020528060005260406000206000915090508060000160009054906101000a900473ffffffffffffffffffffffffffffffffffffffff16908060010160009054906101000a900473ffffffffffffffffffffffffffffffffffffffff16908060020154908060030154908060040154908060050154908060060154908060070160009054906101000a900460ff16908060070160019054906101000a900460ff16905089565b60066020528060005260406000206000915054906101000a900473ffffffffffffffffffffffffffffffffffffffff1681565b6115b2613169565b6115bc60006131e7565b565b600860205281600052604060002081815481106115da57600080fd5b90600052602060002001600091509150505481565b6115f7613110565b600060076000838152602001908152602001600020604051806101200160405290816000820160009054906101000a900473ffffffffffffffffffffffffffffffffffffffff1673ffffffffffffffffffffffffffffffffffffffff1673ffffffffffffffffffffffffffffffffffffffff1681526020016001820160009054906101000a900473ffffffffffffffffffffffffffffffffffffffff1673ffffffffffffffffffffffffffffffffffffffff1673ffffffffffffffffffffffffffffffffffffffff16815260200160028201548152602001600382015481526020016004820154815260200160058201548152602001600682015481526020016007820160009054906101000a900460ff16600381111561171b5761171a613443565b5b600381111561172d5761172c613443565b5b81526020016007820160019054906101000a900460ff16600181111561175657611755613443565b5b600181111561176857611767613443565b5b8152505090506002600381111561178257611781613443565b5b8160e00151600381111561179957611798613443565b5b146117d9576040517f08c379a00000000000000000000000000000000000000000000000000000000081526004016117d090613ced565b60405180910390fd5b428160a001511061181f576040517f08c379a000000000000000000000000000000000000000000000000000000000815260040161181690613d59565b60405180910390fd5b806000015173ffffffffffffffffffffffffffffffffffffffff163373ffffffffffffffffffffffffffffffffffffffff1614611891576040517f08c379a000000000000000000000000000000000000000000000000000000000815260040161188890613dc5565b60405180910390fd5b8060c001514710156118d8576040517f08c379a00000000000000000000000000000000000000000000000000000000081526004016118cf90613e31565b60405180910390fd5b60003373ffffffffffffffffffffffffffffffffffffffff168260c0015160405161190290613a0e565b60006040518083038185875af1925050503d806000811461193f576040519150601f19603f3d011682016040523d82523d6000602084013e611944565b606091505b505090508061197f576040517f90b8ec1800000000000000000000000000000000000000000000000000000000815260040160405180910390fd5b7f3aee8ada74be0c5855909afa48f40028acc23cc7a19e599455f986bcc99e259a33848460c001516040516119b693929190613e51565b60405180910390a150506119c861315f565b50565b81600073ffffffffffffffffffffffffffffffffffffffff166007600083815260200190815260200160002060000160009054906101000a900473ffffffffffffffffffffffffffffffffffffffff1673ffffffffffffffffffffffffffffffffffffffff1603611a7357806040517fa7a86334000000000000000000000000000000000000000000000000000000008152600401611a6a91906133e7565b60405180910390fd5b600060076000858152602001908152602001600020604051806101200160405290816000820160009054906101000a900473ffffffffffffffffffffffffffffffffffffffff1673ffffffffffffffffffffffffffffffffffffffff1673ffffffffffffffffffffffffffffffffffffffff1681526020016001820160009054906101000a900473ffffffffffffffffffffffffffffffffffffffff1673ffffffffffffffffffffffffffffffffffffffff1673ffffffffffffffffffffffffffffffffffffffff16815260200160028201548152602001600382015481526020016004820154815260200160058201548152602001600682015481526020016007820160009054906101000a900460ff166003811115611b9757611b96613443565b5b6003811115611ba957611ba8613443565b5b81526020016007820160019054906101000a900460ff166001811115611bd257611bd1613443565b5b6001811115611be457611be3613443565b5b8152505090503373ffffffffffffffffffffffffffffffffffffffff166007600086815260200190815260200160002060000160009054906101000a900473ffffffffffffffffffffffffffffffffffffffff1673ffffffffffffffffffffffffffffffffffffffff1614611c8e576040517f08c379a0000000000000000000000000000000000000000000000000000000008152600401611c8590613dc5565b60405180910390fd5b60016003811115611ca257611ca1613443565b5b8160e001516003811115611cb957611cb8613443565b5b14611cf9576040517f08c379a0000000000000000000000000000000000000000000000000000000008152600401611cf09061370c565b60405180910390fd5b428160a001511115611d40576040517f08c379a0000000000000000000000000000000000000000000000000000000008152600401611d3790613d59565b60405180910390fd5b6000611d4b8461304f565b8260400151611d5a91906137c7565b905060008185611d6a9190613838565b905060006001811115611d8057611d7f613443565b5b8361010001516001811115611d9857611d97613443565b5b03611e275782606001518110611de3576040517f08c379a0000000000000000000000000000000000000000000000000000000008152600401611dda90613ed4565b60405180910390fd5b60026007600088815260200190815260200160002060070160006101000a81548160ff02191690836003811115611e1d57611e1c613443565b5b0217905550611ead565b82606001518111611e6d576040517f08c379a0000000000000000000000000000000000000000000000000000000008152600401611e6490613f40565b60405180910390fd5b60026007600088815260200190815260200160002060070160006101000a81548160ff02191690836003811115611ea757611ea6613443565b5b02179055505b7f5583b64bd3a1ba206c5d8bf9928893e3af27fd4289ae526d6c75e92b0bdd23243387604051611ede929190613a23565b60405180910390a1505050505050565b6000600160009054906101000a900473ffffffffffffffffffffffffffffffffffffffff16905090565b81600073ffffffffffffffffffffffffffffffffffffffff166007600083815260200190815260200160002060000160009054906101000a900473ffffffffffffffffffffffffffffffffffffffff1673ffffffffffffffffffffffffffffffffffffffff1603611fc057806040517fa7a86334000000000000000000000000000000000000000000000000000000008152600401611fb791906133e7565b60405180910390fd5b611fc8613110565b600060076000858152602001908152602001600020604051806101200160405290816000820160009054906101000a900473ffffffffffffffffffffffffffffffffffffffff1673ffffffffffffffffffffffffffffffffffffffff1673ffffffffffffffffffffffffffffffffffffffff1681526020016001820160009054906101000a900473ffffffffffffffffffffffffffffffffffffffff1673ffffffffffffffffffffffffffffffffffffffff1673ffffffffffffffffffffffffffffffffffffffff16815260200160028201548152602001600382015481526020016004820154815260200160058201548152602001600682015481526020016007820160009054906101000a900460ff1660038111156120ec576120eb613443565b5b60038111156120fe576120fd613443565b5b81526020016007820160019054906101000a900460ff16600181111561212757612126613443565b5b600181111561213957612138613443565b5b815250509050806020015173ffffffffffffffffffffffffffffffffffffffff163373ffffffffffffffffffffffffffffffffffffffff16146121b1576040517f08c379a00000000000000000000000000000000000000000000000000000000081526004016121a8906136a0565b60405180910390fd5b600160038111156121c5576121c4613443565b5b8160e0015160038111156121dc576121db613443565b5b1461221c576040517f08c379a00000000000000000000000000000000000000000000000000000000081526004016122139061370c565b60405180910390fd5b428160a0015110612262576040517f08c379a000000000000000000000000000000000000000000000000000000000815260040161225990613778565b60405180910390fd5b600061226d8461304f565b826040015161227c91906137c7565b90506000818561228c9190613838565b9050826060015181106122d4576040517f08c379a00000000000000000000000000000000000000000000000000000000081526004016122cb90613fac565b60405180910390fd5b6000600360009054906101000a900473ffffffffffffffffffffffffffffffffffffffff1673ffffffffffffffffffffffffffffffffffffffff166323b872dd333087606001516040518463ffffffff1660e01b8152600401612339939291906138d5565b6020604051808303816000875af1158015612358573d6000803e3d6000fd5b505050506040513d601f19601f8201168201806040525081019061237c9190613944565b9050806123b5576040517f90b8ec1800000000000000000000000000000000000000000000000000000000815260040160405180910390fd5b3373ffffffffffffffffffffffffffffffffffffffff168460c001516040516123dd90613a0e565b60006040518083038185875af1925050503d806000811461241a576040519150601f19603f3d011682016040523d82523d6000602084013e61241f565b606091505b5050809150508061245c576040517f90b8ec1800000000000000000000000000000000000000000000000000000000815260040160405180910390fd5b600360009054906101000a900473ffffffffffffffffffffffffffffffffffffffff1673ffffffffffffffffffffffffffffffffffffffff1663a9059cbb856000015186606001516040518363ffffffff1660e01b81526004016124c1929190613a23565b6020604051808303816000875af11580156124e0573d6000803e3d6000fd5b505050506040513d601f19601f820116820180604052508101906125049190613944565b90508061253d576040517f90b8ec1800000000000000000000000000000000000000000000000000000000815260040160405180910390fd5b60036007600089815260200190815260200160002060070160006101000a81548160ff0219169083600381111561257757612576613443565b5b02179055507ff391a2d074664c5a6692a790e7f76d527ee1ebc216f089d28bfbb26a27da8e4733886040516125ad929190613a23565b60405180910390a1505050506125c161315f565b505050565b8484846000831115806125da575060008211155b806125e6575060008111155b1561261d576040517ff45911f000000000000000000000000000000000000000000000000000000000815260040160405180910390fd5b60006126288561304f565b8961263391906137c7565b9050600081866126439190613838565b9050813414612687576040517f08c379a000000000000000000000000000000000000000000000000000000000815260040161267e90614018565b60405180910390fd5b8881146126c9576040517f08c379a00000000000000000000000000000000000000000000000000000000081526004016126c090614084565b60405180910390fd5b6040518061012001604052803373ffffffffffffffffffffffffffffffffffffffff168152602001600073ffffffffffffffffffffffffffffffffffffffff1681526020018b81526020018a8152602001898152602001884261272c9190613b4a565b81526020013481526020016000600381111561274b5761274a613443565b5b815260200160018081111561276357612762613443565b5b81525060076000600454815260200190815260200160002060008201518160000160006101000a81548173ffffffffffffffffffffffffffffffffffffffff021916908373ffffffffffffffffffffffffffffffffffffffff16021790555060208201518160010160006101000a81548173ffffffffffffffffffffffffffffffffffffffff021916908373ffffffffffffffffffffffffffffffffffffffff16021790555060408201518160020155606082015181600301556080820151816004015560a0820151816005015560c0820151816006015560e08201518160070160006101000a81548160ff0219169083600381111561286657612865613443565b5b02179055506101008201518160070160016101000a81548160ff0219169083600181111561289757612896613443565b5b0217905550905050600860003373ffffffffffffffffffffffffffffffffffffffff1673ffffffffffffffffffffffffffffffffffffffff16815260200190815260200160002060045490806001815401808255809150506001900390600052602060002001600090919091909150556004600081548092919061291a90613b7e565b919050556005819055507fadc22b4a7663e5b60bc9428752fa50a98c83b06c8dffdc61a19d4265f97eddb9600554338c8c8c8c426129589190613b4a565b3460405161296c9796959493929190613bc6565b60405180910390a150505050505050505050565b60055481565b80600073ffffffffffffffffffffffffffffffffffffffff166007600083815260200190815260200160002060000160009054906101000a900473ffffffffffffffffffffffffffffffffffffffff1673ffffffffffffffffffffffffffffffffffffffff1603612a2e57806040517fa7a86334000000000000000000000000000000000000000000000000000000008152600401612a2591906133e7565b60405180910390fd5b8160006003811115612a4357612a42613443565b5b6007600083815260200190815260200160002060070160009054906101000a900460ff166003811115612a7957612a78613443565b5b141580612a9b5750426007600083815260200190815260200160002060050154115b15612add57806040517fa7a86334000000000000000000000000000000000000000000000000000000008152600401612ad491906133e7565b60405180910390fd5b612ae5613110565b600060076000858152602001908152602001600020604051806101200160405290816000820160009054906101000a900473ffffffffffffffffffffffffffffffffffffffff1673ffffffffffffffffffffffffffffffffffffffff1673ffffffffffffffffffffffffffffffffffffffff1681526020016001820160009054906101000a900473ffffffffffffffffffffffffffffffffffffffff1673ffffffffffffffffffffffffffffffffffffffff1673ffffffffffffffffffffffffffffffffffffffff16815260200160028201548152602001600382015481526020016004820154815260200160058201548152602001600682015481526020016007820160009054906101000a900460ff166003811115612c0957612c08613443565b5b6003811115612c1b57612c1a613443565b5b81526020016007820160019054906101000a900460ff166001811115612c4457612c43613443565b5b6001811115612c5657612c55613443565b5b81525050905060006001811115612c7057612c6f613443565b5b8161010001516001811115612c8857612c87613443565b5b14612cc8576040517f08c379a0000000000000000000000000000000000000000000000000000000008152600401612cbf906140f0565b60405180910390fd5b6000600360009054906101000a900473ffffffffffffffffffffffffffffffffffffffff1673ffffffffffffffffffffffffffffffffffffffff166323b872dd333085608001516040518463ffffffff1660e01b8152600401612d2d939291906138d5565b6020604051808303816000875af1158015612d4c573d6000803e3d6000fd5b505050506040513d601f19601f82011682018060405250810190612d709190613944565b905080612da9576040517f90b8ec1800000000000000000000000000000000000000000000000000000000815260040160405180910390fd5b600360009054906101000a900473ffffffffffffffffffffffffffffffffffffffff1673ffffffffffffffffffffffffffffffffffffffff1663a9059cbb836000015184608001516040518363ffffffff1660e01b8152600401612e0e929190613a23565b6020604051808303816000875af1158015612e2d573d6000803e3d6000fd5b505050506040513d601f19601f82011682018060405250810190612e519190613944565b905080612e8a576040517f90b8ec1800000000000000000000000000000000000000000000000000000000815260040160405180910390fd5b336007600087815260200190815260200160002060010160006101000a81548173ffffffffffffffffffffffffffffffffffffffff021916908373ffffffffffffffffffffffffffffffffffffffff16021790555060016007600087815260200190815260200160002060070160006101000a81548160ff02191690836003811115612f1957612f18613443565b5b0217905550600860003373ffffffffffffffffffffffffffffffffffffffff1673ffffffffffffffffffffffffffffffffffffffff1681526020019081526020016000208590806001815401808255809150506001900390600052602060002001600090919091909150557fa32eb13541d220f827ac4eb6dc04828fd3884b92154f79d9cac90957a2f309f43386604051612fb5929190613a23565b60405180910390a15050612fc761315f565b505050565b612fd4613169565b600073ffffffffffffffffffffffffffffffffffffffff168173ffffffffffffffffffffffffffffffffffffffff1603613043576040517f08c379a000000000000000000000000000000000000000000000000000000000815260040161303a90614182565b60405180910390fd5b61304c816131e7565b50565b600080600260009054906101000a900473ffffffffffffffffffffffffffffffffffffffff1673ffffffffffffffffffffffffffffffffffffffff1663feaf968c6040518163ffffffff1660e01b815260040160a060405180830381865afa1580156130bf573d6000803e3d6000fd5b505050506040513d601f19601f820116820180604052508101906130e3919061422f565b505050915050670de0b6b3a764000083826130fe91906137c7565b6131089190613838565b915050919050565b600260005403613155576040517f08c379a000000000000000000000000000000000000000000000000000000000815260040161314c906142f6565b60405180910390fd5b6002600081905550565b6001600081905550565b6131716132ad565b73ffffffffffffffffffffffffffffffffffffffff1661318f611eee565b73ffffffffffffffffffffffffffffffffffffffff16146131e5576040517f08c379a00000000000000000000000000000000000000000000000000000000081526004016131dc90614362565b60405180910390fd5b565b6000600160009054906101000a900473ffffffffffffffffffffffffffffffffffffffff16905081600160006101000a81548173ffffffffffffffffffffffffffffffffffffffff021916908373ffffffffffffffffffffffffffffffffffffffff1602179055508173ffffffffffffffffffffffffffffffffffffffff168173ffffffffffffffffffffffffffffffffffffffff167f8be0079c531659141344cd1fd0a4f28419497f9722a3daafe3b4186f6b6457e060405160405180910390a35050565b600033905090565b600080fd5b6000819050919050565b6132cd816132ba565b81146132d857600080fd5b50565b6000813590506132ea816132c4565b92915050565b60008060408385031215613307576133066132b5565b5b6000613315858286016132db565b9250506020613326858286016132db565b9150509250929050565b600080600080600060a0868803121561334c5761334b6132b5565b5b600061335a888289016132db565b955050602061336b888289016132db565b945050604061337c888289016132db565b935050606061338d888289016132db565b925050608061339e888289016132db565b9150509295509295909350565b6000602082840312156133c1576133c06132b5565b5b60006133cf848285016132db565b91505092915050565b6133e1816132ba565b82525050565b60006020820190506133fc60008301846133d8565b92915050565b600073ffffffffffffffffffffffffffffffffffffffff82169050919050565b600061342d82613402565b9050919050565b61343d81613422565b82525050565b7f4e487b7100000000000000000000000000000000000000000000000000000000600052602160045260246000fd5b6004811061348357613482613443565b5b50565b600081905061349482613472565b919050565b60006134a482613486565b9050919050565b6134b481613499565b82525050565b600281106134cb576134ca613443565b5b50565b60008190506134dc826134ba565b919050565b60006134ec826134ce565b9050919050565b6134fc816134e1565b82525050565b600061012082019050613518600083018c613434565b613525602083018b613434565b613532604083018a6133d8565b61353f60608301896133d8565b61354c60808301886133d8565b61355960a08301876133d8565b61356660c08301866133d8565b61357360e08301856134ab565b6135816101008301846134f3565b9a9950505050505050505050565b61359881613422565b81146135a357600080fd5b50565b6000813590506135b58161358f565b92915050565b6000602082840312156135d1576135d06132b5565b5b60006135df848285016135a6565b91505092915050565b60006020820190506135fd6000830184613434565b92915050565b6000806040838503121561361a576136196132b5565b5b6000613628858286016135a6565b9250506020613639858286016132db565b9150509250929050565b600082825260208201905092915050565b7f4e4f542042555945520000000000000000000000000000000000000000000000600082015250565b600061368a600983613643565b915061369582613654565b602082019050919050565b600060208201905081810360008301526136b98161367d565b9050919050565b7f4e4556455220424f554748540000000000000000000000000000000000000000600082015250565b60006136f6600c83613643565b9150613701826136c0565b602082019050919050565b60006020820190508181036000830152613725816136e9565b9050919050565b7f484153204e4f5420455850495245440000000000000000000000000000000000600082015250565b6000613762600f83613643565b915061376d8261372c565b602082019050919050565b6000602082019050818103600083015261379181613755565b9050919050565b7f4e487b7100000000000000000000000000000000000000000000000000000000600052601160045260246000fd5b60006137d2826132ba565b91506137dd836132ba565b92508282026137eb816132ba565b9150828204841483151761380257613801613798565b5b5092915050565b7f4e487b7100000000000000000000000000000000000000000000000000000000600052601260045260246000fd5b6000613843826132ba565b915061384e836132ba565b92508261385e5761385d613809565b5b828204905092915050565b7f4e4f542047524541544552205448414e20535452494b45000000000000000000600082015250565b600061389f601783613643565b91506138aa82613869565b602082019050919050565b600060208201905081810360008301526138ce81613892565b9050919050565b60006060820190506138ea6000830186613434565b6138f76020830185613434565b61390460408301846133d8565b949350505050565b60008115159050919050565b6139218161390c565b811461392c57600080fd5b50565b60008151905061393e81613918565b92915050565b60006020828403121561395a576139596132b5565b5b60006139688482850161392f565b91505092915050565b7f4e4f5420454e4f554748204554482042414c414e434500000000000000000000600082015250565b60006139a7601683613643565b91506139b282613971565b602082019050919050565b600060208201905081810360008301526139d68161399a565b9050919050565b600081905092915050565b50565b60006139f86000836139dd565b9150613a03826139e8565b600082019050919050565b6000613a19826139eb565b9150819050919050565b6000604082019050613a386000830185613434565b613a4560208301846133d8565b9392505050565b7f43414c4c3a204554482056414c5545204d55535420455155414c2053504f542060008201527f5052494345000000000000000000000000000000000000000000000000000000602082015250565b6000613aa8602583613643565b9150613ab382613a4c565b604082019050919050565b60006020820190508181036000830152613ad781613a9b565b9050919050565b7f43414c4c3a2057524f4e472045544820434f4c4c41544552414c000000000000600082015250565b6000613b14601a83613643565b9150613b1f82613ade565b602082019050919050565b60006020820190508181036000830152613b4381613b07565b9050919050565b6000613b55826132ba565b9150613b60836132ba565b9250828201905080821115613b7857613b77613798565b5b92915050565b6000613b89826132ba565b91507fffffffffffffffffffffffffffffffffffffffffffffffffffffffffffffffff8203613bbb57613bba613798565b5b600182019050919050565b600060e082019050613bdb600083018a6133d8565b613be86020830189613434565b613bf560408301886133d8565b613c0260608301876133d8565b613c0f60808301866133d8565b613c1c60a08301856133d8565b613c2960c08301846133d8565b98975050505050505050565b7f4e4f542041205055540000000000000000000000000000000000000000000000600082015250565b6000613c6b600983613643565b9150613c7682613c35565b602082019050919050565b60006020820190508181036000830152613c9a81613c5e565b9050919050565b7f4e4f542043414e43454c45440000000000000000000000000000000000000000600082015250565b6000613cd7600c83613643565b9150613ce282613ca1565b602082019050919050565b60006020820190508181036000830152613d0681613cca565b9050919050565b7f4e4f542045585049524544000000000000000000000000000000000000000000600082015250565b6000613d43600b83613643565b9150613d4e82613d0d565b602082019050919050565b60006020820190508181036000830152613d7281613d36565b9050919050565b7f4e4f542057524954455200000000000000000000000000000000000000000000600082015250565b6000613daf600a83613643565b9150613dba82613d79565b602082019050919050565b60006020820190508181036000830152613dde81613da2565b9050919050565b7f4e4f5420454e4f55474820455448000000000000000000000000000000000000600082015250565b6000613e1b600e83613643565b9150613e2682613de5565b602082019050919050565b60006020820190508181036000830152613e4a81613e0e565b9050919050565b6000606082019050613e666000830186613434565b613e7360208301856133d8565b613e8060408301846133d8565b949350505050565b7f5052494345204e4f54204c455353205448414e20535452494b45000000000000600082015250565b6000613ebe601a83613643565b9150613ec982613e88565b602082019050919050565b60006020820190508181036000830152613eed81613eb1565b9050919050565b7f5052494345204e4f542047524541544552205448414e20535452494b45000000600082015250565b6000613f2a601d83613643565b9150613f3582613ef4565b602082019050919050565b60006020820190508181036000830152613f5981613f1d565b9050919050565b7f4d555354204245204c455353205448414e20535452494b450000000000000000600082015250565b6000613f96601883613643565b9150613fa182613f60565b602082019050919050565b60006020820190508181036000830152613fc581613f89565b9050919050565b7f5055543a204554482056414c5545204d55535420455155414c20444149000000600082015250565b6000614002601d83613643565b915061400d82613fcc565b602082019050919050565b6000602082019050818103600083015261403181613ff5565b9050919050565b7f5055543a2057524f4e472045544820434f4c4c41544552414c00000000000000600082015250565b600061406e601983613643565b915061407982614038565b602082019050919050565b6000602082019050818103600083015261409d81614061565b9050919050565b7f4e4f5420412043414c4c00000000000000000000000000000000000000000000600082015250565b60006140da600a83613643565b91506140e5826140a4565b602082019050919050565b60006020820190508181036000830152614109816140cd565b9050919050565b7f4f776e61626c653a206e6577206f776e657220697320746865207a65726f206160008201527f6464726573730000000000000000000000000000000000000000000000000000602082015250565b600061416c602683613643565b915061417782614110565b604082019050919050565b6000602082019050818103600083015261419b8161415f565b9050919050565b600069ffffffffffffffffffff82169050919050565b6141c1816141a2565b81146141cc57600080fd5b50565b6000815190506141de816141b8565b92915050565b6000819050919050565b6141f7816141e4565b811461420257600080fd5b50565b600081519050614214816141ee565b92915050565b600081519050614229816132c4565b92915050565b600080600080600060a0868803121561424b5761424a6132b5565b5b6000614259888289016141cf565b955050602061426a88828901614205565b945050604061427b8882890161421a565b935050606061428c8882890161421a565b925050608061429d888289016141cf565b9150509295509295909350565b7f5265656e7472616e637947756172643a207265656e7472616e742063616c6c00600082015250565b60006142e0601f83613643565b91506142eb826142aa565b602082019050919050565b6000602082019050818103600083015261430f816142d3565b9050919050565b7f4f776e61626c653a2063616c6c6572206973206e6f7420746865206f776e6572600082015250565b600061434c602083613643565b915061435782614316565b602082019050919050565b6000602082019050818103600083015261437b8161433f565b905091905056fea2646970667358221220087ef0a8c336480ff01850dade5acc46713406cd2ed17030a7b71446eb27a2a364736f6c63430008110033",
  "immutableReferences": {},
  "source": "// @notice This contract is in progress!!\n// SPDX-License-Identifier: MIT\npragma solidity ^0.8.7;\n\nimport \"@chainlink/contracts/src/v0.8/interfaces/AggregatorV3Interface.sol\";\nimport \"@openzeppelin/contracts/security/ReentrancyGuard.sol\";\nimport \"@openzeppelin/contracts/access/Ownable.sol\";\nimport \"@openzeppelin/contracts/token/ERC20/IERC20.sol\";\n\n/// @title Covered European-Style Options\n/// @notice The purpose of this is to be a basic option market implementation. It ignores a lot of option specifis (like the Greeks, for example).\n/// This Smart Contract allows for the buying/writing of Covered Calls & Cash-Secured Puts with ETH as the underlying.\n/// Calls: Let you buy an asset(underlying) at a set price(the strike) on or after a specific date(expiration).\n/// Puts: Let you sell an asset(underlying) at a set price(the strike) on or after a specific date (expiration).\n/// Covered Call: The seller(writer) transfers ETH for collateral(the underlying) and writes a Covered Call. The buyer pays premium w DAI.\n/// Covered Call: At expiration, the buyer has the right to ETH at strike price if spot(market) price is greater than strike price. Settles with DAI.\n/// Cash-Secured Put: The writer transfers ETH for collateral. Buyer pays premium w DAI.\n/// Cash-Secured Put: At expiration, if market price less than strike, buyer has right to sell ETH at the strike to the writer. Settles w DAI.\n/// All options have the following properties:\n/// Strike price - The price at which the underlying asset can either be bought or sold. In this contract the strike == the initial spot price for simplicity.\n/// Expiry - The date at which the option expires.\n/// Premium - The price of the options contract that buyer pays.\n/// This smart contract supports two strategies for the option writer:\n/// 1. Covered Calls - You sell upside on ETH while you hold it for yield, which comes from premium (Netural/Bullish on ETH).\n/// 2. Cash-secured Puts - You earn yield on ETH (Bullish).\n\ncontract Options is ReentrancyGuard, Ownable {\n\n    ///STORAGE///\n\n    AggregatorV3Interface internal daiEthPriceFeed;\n\n    IERC20 dai;\n\n    uint256 public s_optionCounter;\n\n    uint256 public s_optionId;\n\n    mapping(address => address) public s_tokenToEthFeed;\n    mapping(uint256 => Option) public s_optionIdToOption;\n    mapping(address => uint256[]) public s_tradersPosition;\n\n    enum OptionState {\n        Open,\n        Bought,\n        Cancelled,\n        Exercised\n    }\n\n    enum OptionType {\n        Call,\n        Put\n    }\n\n    struct Option {\n        address writer;\n        address buyer;\n        uint256 amount;\n        uint256 strike;\n        uint256 premiumDue;\n        uint256 expiration;\n        uint256 collateral;\n        OptionState optionState;\n        OptionType optionType;\n    }\n\n    ///ERRORS///\n\n    error TransferFailed();\n    error NeedsMoreThanZero();\n    error OptionNotValid(uint256 _optionId);\n\n    ///EVENTS///\n\n    event CallOptionOpen(uint256 id, address writer, uint256 amount, uint256 strike, uint256 premium, uint256 expiration, uint256 value);\n    event PutOptionOpen(uint256 id, address writer, uint256 amount, uint256 strike, uint256 premium, uint256 expiration, uint256 value);\n    event CallOptionBought(address buyer, uint256 id);\n    event PutOptionBought(address buyer, uint256 id);\n    event CallOptionExercised(address buyer, uint256 id);\n    event PutOptionExercised(address buyer, uint256 id);\n    event OptionExpiresWorthless(address buyer, uint256 Id);\n    event FundsRetrieved(address writer, uint256 id, uint256 value);\n    //event AllowedTokenSet(address token, uint256 price);\n\n    ///@dev CHAINLINK PRICEFEEDS & DAI ADDRESSES\n    ///NETWORK: KOVAN\n    ///DAI/ETH Address: 0x22B58f1EbEDfCA50feF632bD73368b2FdA96D541\n    ///Kovan DAI Addr: 0x4f96fe3b7a6cf9725f59d353f723c1bdb64ca6aa\n    ///NETWORK: RINKEBY\n    ///DAI/ETH Address: 0x74825DbC8BF76CC4e9494d0ecB210f676Efa001D\n    ///Rinkeby DAI Addr: 0x4f96fe3b7a6cf9725f59d353f723c1bdb64ca6aa (faucet token)\n    constructor(address _priceFeed, address _daiAddr) {\n        daiEthPriceFeed = AggregatorV3Interface(_priceFeed);\n        dai = IERC20(_daiAddr);\n    }\n\n    ///@dev A seller writes a call option. ETH is sent to contract for collateral.\n    ///@param _amount is the number of options to be written.\n    ///@param _strike is the price of ETH in DAI. Here, strike == current spot price,(for a Dapp, this'd probably be best deteremined on frontend)\n    ///@param _premiumDue the cost of the option call paid by buyer in dai. (For dapp, prob determined on frontend and NOT by the WRITER)\n    ///@param _daysToExpiry days until option expires and can then be exercised or cancelled.\n    ///@param _daiAmount is the amount of dai\n    function writeCallOption(\n        uint256 _amount,\n        uint256 _strike,\n        uint256 _premiumDue,\n        uint256 _daysToExpiry,\n        uint256 _daiAmount\n    ) external payable moreThanZero(_amount, _strike, _premiumDue) {\n\n        //returns x amt of ether for 1 dai...1DAI/xETH\n        uint256 marketPriceEthPerOneDai = _amount * getPriceFeed(_daiAmount);\n        //returns x amt of dai per 1 eth...1ETH/xDAI\n        uint256 marketPriceDaiPerOneEth = _daiAmount /  marketPriceEthPerOneDai;\n\n        //eth sent to contract for collateral MUST equal current spot price (1DAI/xETH)\n        require(msg.value == marketPriceEthPerOneDai, \"CALL: ETH VALUE MUST EQUAL SPOT PRICE\");\n        //So, In this contract the strike == the spot price for simplicity.\n        require(marketPriceDaiPerOneEth == _strike, \"CALL: WRONG ETH COLLATERAL\");\n        \n        s_optionIdToOption[s_optionCounter] = Option(\n            payable(msg.sender),\n            address(0),\n            _amount,\n            _strike,\n            _premiumDue,\n            block.timestamp + _daysToExpiry,\n            msg.value,\n            OptionState.Open,\n            OptionType.Call\n        );\n\n        s_tradersPosition[msg.sender].push(s_optionCounter);\n        s_optionId = s_optionCounter++;\n\n        emit CallOptionOpen(s_optionId, msg.sender, _amount, _strike, _premiumDue, block.timestamp + _daysToExpiry, msg.value);\n    }\n\n    ///@dev Buy an open call option.\n    ///@param _optionId would need to be used to access the correct option. Every buyer must have a seller.\n    function buyCallOption(uint256 _optionId)\n        external\n        optionExists(_optionId)\n        isValidOpenOption(_optionId)\n        nonReentrant\n    {\n        Option memory option = s_optionIdToOption[_optionId];\n\n        require(option.optionType == OptionType.Call, \"NOT A CALL\");\n\n        //buyer pays w dai\n        bool paid = dai.transferFrom(msg.sender, address(this), option.premiumDue);\n        if (!paid) revert TransferFailed();\n\n        //dai transfered to writer\n        paid = dai.transfer(option.writer, option.premiumDue);\n        if (!paid) revert TransferFailed();\n\n        s_optionIdToOption[_optionId].buyer = msg.sender;\n        s_optionIdToOption[_optionId].optionState = OptionState.Bought;\n        s_tradersPosition[msg.sender].push(_optionId);\n\n        emit CallOptionBought(msg.sender, _optionId);\n    }\n\n    ///@dev A seller writes a put option. ETH is sent to contract for collateral.\n    ///@param _amount is the number of options to be written.\n    ///@param _strike is the price of ETH in DAI. Here, strike == current spot price.\n    ///@param _premiumDue the cost of the option call paid by buyer (in DAI).\n    ///@param _daysToExpiry days until option expires and can then be exercised or cancelled.\n    ///@param _daiAmount is the amount of dai\n    function writePutOption(\n        uint256 _amount,\n        uint256 _strike,\n        uint256 _premiumDue,\n        uint256 _daysToExpiry,\n        uint256 _daiAmount\n    ) external payable moreThanZero(_amount, _strike, _premiumDue) {\n\n        //returns x amt of ether for 1 dai...1DAI/ETH\n        uint256 marketPriceEthPerOneDai = _amount * getPriceFeed(_daiAmount);\n        //returns x amt of dai per 1 eth...1ETH/DAI\n        uint256 marketPriceDaiPerOneEth = _daiAmount /  marketPriceEthPerOneDai;\n\n        //Eth sent to contract for collateral MUST equal the value of ETH vs DAI.\n        require(msg.value == marketPriceEthPerOneDai, \"PUT: ETH VALUE MUST EQUAL DAI\");\n        //So, In this contract the strike == the spot price for simplicity.\n        require(marketPriceDaiPerOneEth == _strike, \"PUT: WRONG ETH COLLATERAL\");\n\n        s_optionIdToOption[s_optionCounter] = Option(\n            payable(msg.sender),\n            address(0),\n            _amount,\n            _strike,\n            _premiumDue,\n            block.timestamp + _daysToExpiry,\n            msg.value,\n            OptionState.Open,\n            OptionType.Put\n        );\n\n        s_tradersPosition[msg.sender].push(s_optionCounter);\n        s_optionId = s_optionCounter++;\n\n        emit PutOptionOpen(s_optionId, msg.sender, _amount, _strike, _premiumDue, block.timestamp + _daysToExpiry, msg.value);\n    }\n\n    ///@dev Buy an open put option.\n    ///@param _optionId Would need to be used to access the correct option. Every buyer must have a seller.\n    function buyPutOption(uint256 _optionId)\n        external\n        optionExists(_optionId)\n        isValidOpenOption(_optionId)\n        nonReentrant\n    {\n        Option memory option = s_optionIdToOption[_optionId];\n\n        require(option.optionType == OptionType.Put, \"NOT A PUT\");\n\n        //pay premium w dai\n        bool paid = dai.transferFrom(msg.sender, address(this), option.premiumDue);\n        if (!paid) revert TransferFailed();\n\n        //transfer premium to writer\n        paid = dai.transfer(option.writer, option.premiumDue);\n        if (!paid) revert TransferFailed();\n\n        s_optionIdToOption[_optionId].buyer = msg.sender;\n        s_optionIdToOption[_optionId].optionState = OptionState.Bought;\n        s_tradersPosition[msg.sender].push(_optionId);\n\n        emit PutOptionBought(msg.sender, _optionId);\n    }\n\n    ///@dev The buyer can exercise a call option at expiration.\n    ///@param _optionId would need to be used to access the correct option. Every buyer must have a seller.\n    ///@param _daiAmount is the amount of dai\n    function exerciseCallOption(uint256 _optionId, uint256 _daiAmount)\n        external\n        payable\n        optionExists(_optionId)\n        nonReentrant\n    {\n        Option memory option = s_optionIdToOption[_optionId];\n\n        require(msg.sender == option.buyer, \"NOT BUYER\");\n        require(option.optionState == OptionState.Bought, \"NEVER BOUGHT\");\n        require(option.expiration < block.timestamp, \"HAS NOT EXPIRED\");\n\n        //returns # of dai for 1 ETH. Ex: 1 dai = ~0.0002eth in real life right now\n        uint256 marketPriceEthPerOneDai = option.amount * getPriceFeed(_daiAmount);\n        \n        //returns 1 eth = x amt of dai...\n        uint256 marketPriceDaiPerOneEth = _daiAmount /  marketPriceEthPerOneDai;\n\n        //If spot < strike, option is worthless\n        require(marketPriceDaiPerOneEth > option.strike, \"NOT GREATER THAN STRIKE\");\n\n        //buyer gets right to buy ETH at strike w DAI\n        bool paid = dai.transferFrom(msg.sender, address(this), option.strike);\n        if (!paid) revert TransferFailed();\n\n        //transfer to msg.sender the writer's ETH collateral\n        require(address(this).balance >= option.collateral, \"NOT ENOUGH ETH BALANCE\");\n        (paid, ) = payable(msg.sender).call{value: option.collateral}(\"\");\n        if(!paid) revert TransferFailed();\n\n        //transfer dai to option writer\n        paid = dai.transfer(option.writer, option.strike);\n        if (!paid) revert TransferFailed();\n     \n        s_optionIdToOption[_optionId].optionState = OptionState.Exercised;\n\n        emit CallOptionExercised(msg.sender, _optionId);\n    }\n\n    ///@dev The buyer can exercise a put option at expiration.\n    ///@param _optionId would need to be used to access the correct option. Every buyer must have a seller.\n    ///@param _daiAmount is the amount of dai\n    function exercisePutOption(uint256 _optionId, uint256 _daiAmount)\n        external\n        payable\n        optionExists(_optionId)\n        nonReentrant\n    {\n        Option memory option = s_optionIdToOption[_optionId];\n\n        require(msg.sender == option.buyer, \"NOT BUYER\");\n        require(option.optionState == OptionState.Bought, \"NEVER BOUGHT\");\n        require(option.expiration < block.timestamp, \"HAS NOT EXPIRED\");\n\n        //returns # of dai for 1 ETH. Ex: 1 dai = ~0.0002eth in real life right now\n        uint256 marketPriceEthPerOneDai = option.amount * getPriceFeed(_daiAmount);\n\n        //returns 1 eth = x amt of dai...\n        uint256 marketPriceDaiPerOneEth = _daiAmount /  marketPriceEthPerOneDai;\n        \n        //if spot > strike, option is worthless\n        require(marketPriceDaiPerOneEth < option.strike, \"MUST BE LESS THAN STRIKE\");\n\n        //buyer gets to sell ETH(gets collateral) for DAI at strike to option writer\n        bool paid = dai.transferFrom(msg.sender, address(this), option.strike);\n        if (!paid) revert TransferFailed();\n\n        (paid,) = payable(msg.sender).call{value: option.collateral}(\"\");\n        if(!paid) revert TransferFailed();\n\n        //transfer dai to option writer\n        paid = dai.transfer(option.writer, option.strike);\n        if (!paid) revert TransferFailed();\n     \n        s_optionIdToOption[_optionId].optionState = OptionState.Exercised;\n\n        emit PutOptionExercised(msg.sender, _optionId);\n    }\n\n    ///@dev The writer can cancel options that have expired and are worthless\n    ///@param _optionId would need to be used to access the correct option. Every buyer must have a seller.\n    ///@param _daiAmount is the amount of dai\n    function optionExpiresWorthless(uint256 _optionId, uint256 _daiAmount) external optionExists(_optionId) {\n\n        Option memory option = s_optionIdToOption[_optionId];\n\n        require(s_optionIdToOption[_optionId].writer == msg.sender, \"NOT WRITER\");\n        require(option.optionState == OptionState.Bought, \"NEVER BOUGHT\");\n        require(option.expiration <= block.timestamp, \"NOT EXPIRED\");\n\n        uint256 marketPriceEthPerOneDai = option.amount * getPriceFeed(_daiAmount);\n\n        uint256 marketPriceDaiPerOneEth = _daiAmount /  marketPriceEthPerOneDai;\n\n        if (option.optionType == OptionType.Call) {\n\n            //For call, if spot < strike, call options expire worthless\n            require(marketPriceDaiPerOneEth < option.strike, \"PRICE NOT LESS THAN STRIKE\");\n            s_optionIdToOption[_optionId].optionState = OptionState.Cancelled;\n\n        } else {\n\n            //For put, if spot > strike, put options expire worthless\n            require(marketPriceDaiPerOneEth > option.strike, \"PRICE NOT GREATER THAN STRIKE\");\n            s_optionIdToOption[_optionId].optionState = OptionState.Cancelled;\n        }\n\n        emit OptionExpiresWorthless(msg.sender, _optionId);\n    }\n\n    ///@dev If options are worthless(cancelled), then writer can get back ETH collateral\n    ///@param _optionId would need to be used to access the correct option. Every buyer must have a seller.\n    function retrieveExpiredFunds(uint256 _optionId) external nonReentrant {\n        Option memory option = s_optionIdToOption[_optionId];\n        \n        require(option.optionState == OptionState.Cancelled, \"NOT CANCELED\");\n        require(option.expiration < block.timestamp, \"NOT EXPIRED\");\n        require(msg.sender == option.writer, \"NOT WRITER\");\n\n        //check contract balance is enough for transfer\n        require(address(this).balance >= option.collateral, \"NOT ENOUGH ETH\");\n\n        //return ETH collateral to writer if options expired worthless(cancelled)\n        (bool paid,) = payable(msg.sender).call{value: option.collateral}(\"\");\n        if(!paid) revert TransferFailed();\n\n        emit FundsRetrieved(msg.sender, _optionId, option.collateral);\n    }\n\n    /*********************************/\n    /* Oracle (Chainlink) Functions */\n    /*********************************/\n\n    ///@dev get the DaiEthPriceFeed (18 decimals) from Chainlink (look at consrtuctor for contract addresses)\n    ///@param _amountInDai the amount of Dai\n    function getPriceFeed(uint256 _amountInDai) public view returns (uint256) {\n        (, int256 price, , , ) = daiEthPriceFeed.latestRoundData();\n        return (uint256(price) * _amountInDai) / 1e18;\n    }\n\n    /**************/\n    /* Modifiers */\n    /*************/\n\n    modifier moreThanZero(\n        uint256 amount,\n        uint256 strikePrice,\n        uint256 premiumCost\n    ) {\n        if (amount <= 0 || strikePrice <= 0 || premiumCost <= 0) revert NeedsMoreThanZero();\n        _;\n    }\n\n    modifier optionExists(uint256 optionId) {\n        if (s_optionIdToOption[optionId].writer == address(0)) revert OptionNotValid(optionId);\n        _;\n    }\n\n    modifier isValidOpenOption(uint256 optionId) {\n        if (\n            s_optionIdToOption[optionId].optionState != OptionState.Open ||\n            s_optionIdToOption[optionId].expiration > block.timestamp\n            // || s_optionIdToOption[optionId].buyer == address(0)\n        ) revert OptionNotValid(optionId);\n        _;\n    }\n}\n",
  "sourcePath": "/home/moneyhoardermike/ChainLink/blocks-of-passion-protocol/src/contracts/Options.sol",
  "compiler": {
    "name": "solc",
    "version": "0.8.17+commit.8df45f5f.Emscripten.clang"
  },
  "schemaVersion": "3.4.10",
  "updatedAt": "2022-11-18T03:53:16.399Z",
  "devdoc": {
    "kind": "dev",
    "methods": {
      "buyCallOption(uint256)": {
        "details": "Buy an open call option.",
        "params": {
          "_optionId": "would need to be used to access the correct option. Every buyer must have a seller."
        }
      },
      "buyPutOption(uint256)": {
        "details": "Buy an open put option.",
        "params": {
          "_optionId": "Would need to be used to access the correct option. Every buyer must have a seller."
        }
      },
      "constructor": {
        "details": "CHAINLINK PRICEFEEDS & DAI ADDRESSES NETWORK: KOVAN DAI/ETH Address: 0x22B58f1EbEDfCA50feF632bD73368b2FdA96D541 Kovan DAI Addr: 0x4f96fe3b7a6cf9725f59d353f723c1bdb64ca6aa NETWORK: RINKEBY DAI/ETH Address: 0x74825DbC8BF76CC4e9494d0ecB210f676Efa001D Rinkeby DAI Addr: 0x4f96fe3b7a6cf9725f59d353f723c1bdb64ca6aa (faucet token)"
      },
      "exerciseCallOption(uint256,uint256)": {
        "details": "The buyer can exercise a call option at expiration.",
        "params": {
          "_daiAmount": "is the amount of dai",
          "_optionId": "would need to be used to access the correct option. Every buyer must have a seller."
        }
      },
      "exercisePutOption(uint256,uint256)": {
        "details": "The buyer can exercise a put option at expiration.",
        "params": {
          "_daiAmount": "is the amount of dai",
          "_optionId": "would need to be used to access the correct option. Every buyer must have a seller."
        }
      },
      "getPriceFeed(uint256)": {
        "details": "get the DaiEthPriceFeed (18 decimals) from Chainlink (look at consrtuctor for contract addresses)",
        "params": {
          "_amountInDai": "the amount of Dai"
        }
      },
      "optionExpiresWorthless(uint256,uint256)": {
        "details": "The writer can cancel options that have expired and are worthless",
        "params": {
          "_daiAmount": "is the amount of dai",
          "_optionId": "would need to be used to access the correct option. Every buyer must have a seller."
        }
      },
      "owner()": {
        "details": "Returns the address of the current owner."
      },
      "renounceOwnership()": {
        "details": "Leaves the contract without owner. It will not be possible to call `onlyOwner` functions anymore. Can only be called by the current owner. NOTE: Renouncing ownership will leave the contract without an owner, thereby removing any functionality that is only available to the owner."
      },
      "retrieveExpiredFunds(uint256)": {
        "details": "If options are worthless(cancelled), then writer can get back ETH collateral",
        "params": {
          "_optionId": "would need to be used to access the correct option. Every buyer must have a seller."
        }
      },
      "transferOwnership(address)": {
        "details": "Transfers ownership of the contract to a new account (`newOwner`). Can only be called by the current owner."
      },
      "writeCallOption(uint256,uint256,uint256,uint256,uint256)": {
        "details": "A seller writes a call option. ETH is sent to contract for collateral.",
        "params": {
          "_amount": "is the number of options to be written.",
          "_daiAmount": "is the amount of dai",
          "_daysToExpiry": "days until option expires and can then be exercised or cancelled.",
          "_premiumDue": "the cost of the option call paid by buyer in dai. (For dapp, prob determined on frontend and NOT by the WRITER)",
          "_strike": "is the price of ETH in DAI. Here, strike == current spot price,(for a Dapp, this'd probably be best deteremined on frontend)"
        }
      },
      "writePutOption(uint256,uint256,uint256,uint256,uint256)": {
        "details": "A seller writes a put option. ETH is sent to contract for collateral.",
        "params": {
          "_amount": "is the number of options to be written.",
          "_daiAmount": "is the amount of dai",
          "_daysToExpiry": "days until option expires and can then be exercised or cancelled.",
          "_premiumDue": "the cost of the option call paid by buyer (in DAI).",
          "_strike": "is the price of ETH in DAI. Here, strike == current spot price."
        }
      }
    },
    "title": "Covered European-Style Options",
    "version": 1
  },
  "userdoc": {
    "errors": {
      "TransferFailed()": [
        {
          "notice": "ERRORS///"
        }
      ]
    },
    "events": {
      "CallOptionOpen(uint256,address,uint256,uint256,uint256,uint256,uint256)": {
        "notice": "EVENTS///"
      }
    },
    "kind": "user",
    "methods": {},
    "notice": "The purpose of this is to be a basic option market implementation. It ignores a lot of option specifis (like the Greeks, for example). This Smart Contract allows for the buying/writing of Covered Calls & Cash-Secured Puts with ETH as the underlying. Calls: Let you buy an asset(underlying) at a set price(the strike) on or after a specific date(expiration). Puts: Let you sell an asset(underlying) at a set price(the strike) on or after a specific date (expiration). Covered Call: The seller(writer) transfers ETH for collateral(the underlying) and writes a Covered Call. The buyer pays premium w DAI. Covered Call: At expiration, the buyer has the right to ETH at strike price if spot(market) price is greater than strike price. Settles with DAI. Cash-Secured Put: The writer transfers ETH for collateral. Buyer pays premium w DAI. Cash-Secured Put: At expiration, if market price less than strike, buyer has right to sell ETH at the strike to the writer. Settles w DAI. All options have the following properties: Strike price - The price at which the underlying asset can either be bought or sold. In this contract the strike == the initial spot price for simplicity. Expiry - The date at which the option expires. Premium - The price of the options contract that buyer pays. This smart contract supports two strategies for the option writer: 1. Covered Calls - You sell upside on ETH while you hold it for yield, which comes from premium (Netural/Bullish on ETH). 2. Cash-secured Puts - You earn yield on ETH (Bullish).",
    "version": 1
  }
}