{
  "contractName": "Staking",
  "abi": [
    {
      "inputs": [
        {
          "internalType": "address",
          "name": "stakingToken",
          "type": "address"
        },
        {
          "internalType": "address",
          "name": "rewardsToken",
          "type": "address"
        }
      ],
      "stateMutability": "nonpayable",
      "type": "constructor"
    },
    {
      "inputs": [],
      "name": "NeedsMoreThanZero",
      "type": "error"
    },
    {
      "inputs": [],
      "name": "TransferFailed",
      "type": "error"
    },
    {
      "anonymous": false,
      "inputs": [
        {
          "indexed": true,
          "internalType": "address",
          "name": "user",
          "type": "address"
        },
        {
          "indexed": true,
          "internalType": "uint256",
          "name": "amount",
          "type": "uint256"
        }
      ],
      "name": "RewardsClaimed",
      "type": "event"
    },
    {
      "anonymous": false,
      "inputs": [
        {
          "indexed": true,
          "internalType": "address",
          "name": "user",
          "type": "address"
        },
        {
          "indexed": true,
          "internalType": "uint256",
          "name": "amount",
          "type": "uint256"
        }
      ],
      "name": "Staked",
      "type": "event"
    },
    {
      "anonymous": false,
      "inputs": [
        {
          "indexed": true,
          "internalType": "address",
          "name": "user",
          "type": "address"
        },
        {
          "indexed": true,
          "internalType": "uint256",
          "name": "amount",
          "type": "uint256"
        }
      ],
      "name": "WithdrewStake",
      "type": "event"
    },
    {
      "inputs": [],
      "name": "REWARD_RATE",
      "outputs": [
        {
          "internalType": "uint256",
          "name": "",
          "type": "uint256"
        }
      ],
      "stateMutability": "view",
      "type": "function"
    },
    {
      "inputs": [
        {
          "internalType": "address",
          "name": "",
          "type": "address"
        }
      ],
      "name": "s_balances",
      "outputs": [
        {
          "internalType": "uint256",
          "name": "",
          "type": "uint256"
        }
      ],
      "stateMutability": "view",
      "type": "function"
    },
    {
      "inputs": [],
      "name": "s_lastUpdateTime",
      "outputs": [
        {
          "internalType": "uint256",
          "name": "",
          "type": "uint256"
        }
      ],
      "stateMutability": "view",
      "type": "function"
    },
    {
      "inputs": [],
      "name": "s_rewardPerTokenStored",
      "outputs": [
        {
          "internalType": "uint256",
          "name": "",
          "type": "uint256"
        }
      ],
      "stateMutability": "view",
      "type": "function"
    },
    {
      "inputs": [
        {
          "internalType": "address",
          "name": "",
          "type": "address"
        }
      ],
      "name": "s_rewards",
      "outputs": [
        {
          "internalType": "uint256",
          "name": "",
          "type": "uint256"
        }
      ],
      "stateMutability": "view",
      "type": "function"
    },
    {
      "inputs": [],
      "name": "s_rewardsToken",
      "outputs": [
        {
          "internalType": "contract IERC20",
          "name": "",
          "type": "address"
        }
      ],
      "stateMutability": "view",
      "type": "function"
    },
    {
      "inputs": [],
      "name": "s_stakingToken",
      "outputs": [
        {
          "internalType": "contract IERC20",
          "name": "",
          "type": "address"
        }
      ],
      "stateMutability": "view",
      "type": "function"
    },
    {
      "inputs": [
        {
          "internalType": "address",
          "name": "",
          "type": "address"
        }
      ],
      "name": "s_userRewardPerTokenPaid",
      "outputs": [
        {
          "internalType": "uint256",
          "name": "",
          "type": "uint256"
        }
      ],
      "stateMutability": "view",
      "type": "function"
    },
    {
      "inputs": [],
      "name": "rewardPerToken",
      "outputs": [
        {
          "internalType": "uint256",
          "name": "",
          "type": "uint256"
        }
      ],
      "stateMutability": "view",
      "type": "function"
    },
    {
      "inputs": [
        {
          "internalType": "address",
          "name": "account",
          "type": "address"
        }
      ],
      "name": "earned",
      "outputs": [
        {
          "internalType": "uint256",
          "name": "",
          "type": "uint256"
        }
      ],
      "stateMutability": "view",
      "type": "function"
    },
    {
      "inputs": [
        {
          "internalType": "uint256",
          "name": "amount",
          "type": "uint256"
        }
      ],
      "name": "stake",
      "outputs": [],
      "stateMutability": "nonpayable",
      "type": "function"
    },
    {
      "inputs": [
        {
          "internalType": "uint256",
          "name": "amount",
          "type": "uint256"
        }
      ],
      "name": "withdraw",
      "outputs": [],
      "stateMutability": "nonpayable",
      "type": "function"
    },
    {
      "inputs": [],
      "name": "claimReward",
      "outputs": [],
      "stateMutability": "nonpayable",
      "type": "function"
    },
    {
      "inputs": [
        {
          "internalType": "address",
          "name": "account",
          "type": "address"
        }
      ],
      "name": "getStaked",
      "outputs": [
        {
          "internalType": "uint256",
          "name": "",
          "type": "uint256"
        }
      ],
      "stateMutability": "view",
      "type": "function"
    }
  ],
  "bytecode": "0x60806040523480156200001157600080fd5b506040516200129938038062001299833981810160405281019062000037919062000133565b600160008190555081600260006101000a81548173ffffffffffffffffffffffffffffffffffffffff021916908373ffffffffffffffffffffffffffffffffffffffff16021790555080600160006101000a81548173ffffffffffffffffffffffffffffffffffffffff021916908373ffffffffffffffffffffffffffffffffffffffff16021790555050506200017a565b600080fd5b600073ffffffffffffffffffffffffffffffffffffffff82169050919050565b6000620000fb82620000ce565b9050919050565b6200010d81620000ee565b81146200011957600080fd5b50565b6000815190506200012d8162000102565b92915050565b600080604083850312156200014d576200014c620000c9565b5b60006200015d858286016200011c565b925050602062000170858286016200011c565b9150509250929050565b61110f806200018a6000396000f3fe608060405234801561001057600080fd5b50600436106100e95760003560e01c8063a694fc3a1161008c578063b88a802f11610066578063b88a802f1461024c578063bea0815114610256578063cd3daf9d14610286578063f245ace4146102a4576100e9565b8063a694fc3a146101e2578063ab32eb69146101fe578063adca9b721461022e576100e9565b8063304ac91b116100c8578063304ac91b14610158578063399080ec146101765780635997bb37146101a65780636aa0838f146101c4576100e9565b80628cc262146100ee5780630bd21c561461011e5780632e1a7d4d1461013c575b600080fd5b61010860048036038101906101039190610d1b565b6102d4565b6040516101159190610d61565b60405180910390f35b6101266103d6565b6040516101339190610ddb565b60405180910390f35b61015660048036038101906101519190610e22565b6103fc565b005b610160610647565b60405161016d9190610d61565b60405180910390f35b610190600480360381019061018b9190610d1b565b61064d565b60405161019d9190610d61565b60405180910390f35b6101ae610696565b6040516101bb9190610d61565b60405180910390f35b6101cc61069b565b6040516101d99190610d61565b60405180910390f35b6101fc60048036038101906101f79190610e22565b6106a1565b005b61021860048036038101906102139190610d1b565b61092a565b6040516102259190610d61565b60405180910390f35b610236610942565b6040516102439190610ddb565b60405180910390f35b610254610968565b005b610270600480360381019061026b9190610d1b565b610bcd565b60405161027d9190610d61565b60405180910390f35b61028e610be5565b60405161029b9190610d61565b60405180910390f35b6102be60048036038101906102b99190610d1b565b610c47565b6040516102cb9190610d61565b60405180910390f35b6000600660008373ffffffffffffffffffffffffffffffffffffffff1673ffffffffffffffffffffffffffffffffffffffff16815260200190815260200160002054670de0b6b3a7640000600560008573ffffffffffffffffffffffffffffffffffffffff1673ffffffffffffffffffffffffffffffffffffffff16815260200190815260200160002054610367610be5565b6103719190610e7e565b600860008673ffffffffffffffffffffffffffffffffffffffff1673ffffffffffffffffffffffffffffffffffffffff168152602001908152602001600020546103bb9190610eb2565b6103c59190610f23565b6103cf9190610f54565b9050919050565b600160009054906101000a900473ffffffffffffffffffffffffffffffffffffffff1681565b33610405610be5565b6004819055504260038190555061041b816102d4565b600660008373ffffffffffffffffffffffffffffffffffffffff1673ffffffffffffffffffffffffffffffffffffffff16815260200190815260200160002081905550600454600560008373ffffffffffffffffffffffffffffffffffffffff1673ffffffffffffffffffffffffffffffffffffffff168152602001908152602001600020819055506104ac610c5f565b81600760008282546104be9190610e7e565b9250508190555081600860003373ffffffffffffffffffffffffffffffffffffffff1673ffffffffffffffffffffffffffffffffffffffff16815260200190815260200160002060008282546105149190610e7e565b92505081905550813373ffffffffffffffffffffffffffffffffffffffff167f4cb6da433ea55f6e302b7bdbfeed740816a42301cde7f5bac5dff2b34037637460405160405180910390a36000600260009054906101000a900473ffffffffffffffffffffffffffffffffffffffff1673ffffffffffffffffffffffffffffffffffffffff1663a9059cbb33856040518363ffffffff1660e01b81526004016105be929190610f97565b6020604051808303816000875af11580156105dd573d6000803e3d6000fd5b505050506040513d601f19601f820116820180604052508101906106019190610ff8565b90508061063a576040517f90b8ec1800000000000000000000000000000000000000000000000000000000815260040160405180910390fd5b50610643610cae565b5050565b60045481565b6000600860008373ffffffffffffffffffffffffffffffffffffffff1673ffffffffffffffffffffffffffffffffffffffff168152602001908152602001600020549050919050565b606481565b60035481565b336106aa610be5565b600481905550426003819055506106c0816102d4565b600660008373ffffffffffffffffffffffffffffffffffffffff1673ffffffffffffffffffffffffffffffffffffffff16815260200190815260200160002081905550600454600560008373ffffffffffffffffffffffffffffffffffffffff1673ffffffffffffffffffffffffffffffffffffffff16815260200190815260200160002081905550610751610c5f565b816000810361078c576040517ff45911f000000000000000000000000000000000000000000000000000000000815260040160405180910390fd5b826007600082825461079e9190610f54565b9250508190555082600860003373ffffffffffffffffffffffffffffffffffffffff1673ffffffffffffffffffffffffffffffffffffffff16815260200190815260200160002060008282546107f49190610f54565b92505081905550823373ffffffffffffffffffffffffffffffffffffffff167f9e71bc8eea02a63969f509818f2dafb9254532904319f9dbda79b67bd34a5f3d60405160405180910390a36000600260009054906101000a900473ffffffffffffffffffffffffffffffffffffffff1673ffffffffffffffffffffffffffffffffffffffff166323b872dd3330876040518463ffffffff1660e01b81526004016108a093929190611025565b6020604051808303816000875af11580156108bf573d6000803e3d6000fd5b505050506040513d601f19601f820116820180604052508101906108e39190610ff8565b90508061091c576040517f90b8ec1800000000000000000000000000000000000000000000000000000000815260040160405180910390fd5b5050610926610cae565b5050565b60086020528060005260406000206000915090505481565b600260009054906101000a900473ffffffffffffffffffffffffffffffffffffffff1681565b33610971610be5565b60048190555042600381905550610987816102d4565b600660008373ffffffffffffffffffffffffffffffffffffffff1673ffffffffffffffffffffffffffffffffffffffff16815260200190815260200160002081905550600454600560008373ffffffffffffffffffffffffffffffffffffffff1673ffffffffffffffffffffffffffffffffffffffff16815260200190815260200160002081905550610a18610c5f565b6000600660003373ffffffffffffffffffffffffffffffffffffffff1673ffffffffffffffffffffffffffffffffffffffff1681526020019081526020016000205490506000600660003373ffffffffffffffffffffffffffffffffffffffff1673ffffffffffffffffffffffffffffffffffffffff16815260200190815260200160002081905550803373ffffffffffffffffffffffffffffffffffffffff167ffc30cddea38e2bf4d6ea7d3f9ed3b6ad7f176419f4963bd81318067a4aee73fe60405160405180910390a36000600160009054906101000a900473ffffffffffffffffffffffffffffffffffffffff1673ffffffffffffffffffffffffffffffffffffffff1663a9059cbb33846040518363ffffffff1660e01b8152600401610b44929190610f97565b6020604051808303816000875af1158015610b63573d6000803e3d6000fd5b505050506040513d601f19601f82011682018060405250810190610b879190610ff8565b905080610bc0576040517f90b8ec1800000000000000000000000000000000000000000000000000000000815260040160405180910390fd5b5050610bca610cae565b50565b60066020528060005260406000206000915090505481565b60008060075403610bfa576004549050610c44565b600754670de0b6b3a7640000606460035442610c169190610e7e565b610c209190610eb2565b610c2a9190610eb2565b610c349190610f23565b600454610c419190610f54565b90505b90565b60056020528060005260406000206000915090505481565b600260005403610ca4576040517f08c379a0000000000000000000000000000000000000000000000000000000008152600401610c9b906110b9565b60405180910390fd5b6002600081905550565b6001600081905550565b600080fd5b600073ffffffffffffffffffffffffffffffffffffffff82169050919050565b6000610ce882610cbd565b9050919050565b610cf881610cdd565b8114610d0357600080fd5b50565b600081359050610d1581610cef565b92915050565b600060208284031215610d3157610d30610cb8565b5b6000610d3f84828501610d06565b91505092915050565b6000819050919050565b610d5b81610d48565b82525050565b6000602082019050610d766000830184610d52565b92915050565b6000819050919050565b6000610da1610d9c610d9784610cbd565b610d7c565b610cbd565b9050919050565b6000610db382610d86565b9050919050565b6000610dc582610da8565b9050919050565b610dd581610dba565b82525050565b6000602082019050610df06000830184610dcc565b92915050565b610dff81610d48565b8114610e0a57600080fd5b50565b600081359050610e1c81610df6565b92915050565b600060208284031215610e3857610e37610cb8565b5b6000610e4684828501610e0d565b91505092915050565b7f4e487b7100000000000000000000000000000000000000000000000000000000600052601160045260246000fd5b6000610e8982610d48565b9150610e9483610d48565b9250828203905081811115610eac57610eab610e4f565b5b92915050565b6000610ebd82610d48565b9150610ec883610d48565b9250828202610ed681610d48565b91508282048414831517610eed57610eec610e4f565b5b5092915050565b7f4e487b7100000000000000000000000000000000000000000000000000000000600052601260045260246000fd5b6000610f2e82610d48565b9150610f3983610d48565b925082610f4957610f48610ef4565b5b828204905092915050565b6000610f5f82610d48565b9150610f6a83610d48565b9250828201905080821115610f8257610f81610e4f565b5b92915050565b610f9181610cdd565b82525050565b6000604082019050610fac6000830185610f88565b610fb96020830184610d52565b9392505050565b60008115159050919050565b610fd581610fc0565b8114610fe057600080fd5b50565b600081519050610ff281610fcc565b92915050565b60006020828403121561100e5761100d610cb8565b5b600061101c84828501610fe3565b91505092915050565b600060608201905061103a6000830186610f88565b6110476020830185610f88565b6110546040830184610d52565b949350505050565b600082825260208201905092915050565b7f5265656e7472616e637947756172643a207265656e7472616e742063616c6c00600082015250565b60006110a3601f8361105c565b91506110ae8261106d565b602082019050919050565b600060208201905081810360008301526110d281611096565b905091905056fea2646970667358221220aa9cd49aaa33e845f80d797f14e31aaad5d083920b4dd27e790c2dd30557664b64736f6c63430008110033",
  "immutableReferences": {},
  "source": "// SPDX-License-Identifier: MIT\n// Inspired by https://solidity-by-example.org/defi/staking-rewards/\npragma solidity ^0.8.7;\n\nimport \"@openzeppelin/contracts/security/ReentrancyGuard.sol\";\nimport \"@openzeppelin/contracts/token/ERC20/IERC20.sol\";\n\nerror TransferFailed();\nerror NeedsMoreThanZero();\n\ncontract Staking is ReentrancyGuard {\n    IERC20 public s_rewardsToken;\n    IERC20 public s_stakingToken;\n\n    // This is the reward token per second\n    // Which will be multiplied by the tokens the user staked divided by the total\n    // This ensures a steady reward rate of the platform\n    // So the more users stake, the less for everyone who is staking.\n    uint256 public constant REWARD_RATE = 100;\n    uint256 public s_lastUpdateTime;\n    uint256 public s_rewardPerTokenStored;\n\n    mapping(address => uint256) public s_userRewardPerTokenPaid;\n    mapping(address => uint256) public s_rewards;\n\n    uint256 private s_totalSupply;\n    mapping(address => uint256) public s_balances;\n\n    event Staked(address indexed user, uint256 indexed amount);\n    event WithdrewStake(address indexed user, uint256 indexed amount);\n    event RewardsClaimed(address indexed user, uint256 indexed amount);\n\n    constructor(address stakingToken, address rewardsToken) {\n        s_stakingToken = IERC20(stakingToken);\n        s_rewardsToken = IERC20(rewardsToken);\n    }\n\n    /**\n     * @notice How much reward a token gets based on how long it's been in and during which \"snapshots\"\n     */\n    function rewardPerToken() public view returns (uint256) {\n        if (s_totalSupply == 0) {\n            return s_rewardPerTokenStored;\n        }\n        return\n            s_rewardPerTokenStored +\n            (((block.timestamp - s_lastUpdateTime) * REWARD_RATE * 1e18) / s_totalSupply);\n    }\n\n    /**\n     * @notice How much reward a user has earned\n     */\n    function earned(address account) public view returns (uint256) {\n        return\n            ((s_balances[account] * (rewardPerToken() - s_userRewardPerTokenPaid[account])) /\n                1e18) + s_rewards[account];\n    }\n\n    /**\n     * @notice Deposit tokens into this contract\n     * @param amount | How much to stake\n     */\n    function stake(uint256 amount)\n        external\n        updateReward(msg.sender)\n        nonReentrant\n        moreThanZero(amount)\n    {\n        s_totalSupply += amount;\n        s_balances[msg.sender] += amount;\n        emit Staked(msg.sender, amount);\n        bool success = s_stakingToken.transferFrom(msg.sender, address(this), amount);\n        if (!success) {\n            revert TransferFailed();\n        }\n    }\n\n    /**\n     * @notice Withdraw tokens from this contract\n     * @param amount | How much to withdraw\n     */\n    function withdraw(uint256 amount) external updateReward(msg.sender) nonReentrant {\n        s_totalSupply -= amount;\n        s_balances[msg.sender] -= amount;\n        emit WithdrewStake(msg.sender, amount);\n        bool success = s_stakingToken.transfer(msg.sender, amount);\n        if (!success) {\n            revert TransferFailed();\n        }\n    }\n\n    /**\n     * @notice User claims their tokens\n     */\n    function claimReward() external updateReward(msg.sender) nonReentrant {\n        uint256 reward = s_rewards[msg.sender];\n        s_rewards[msg.sender] = 0;\n        emit RewardsClaimed(msg.sender, reward);\n        bool success = s_rewardsToken.transfer(msg.sender, reward);\n        if (!success) {\n            revert TransferFailed();\n        }\n    }\n\n    /********************/\n    /* Modifiers Functions */\n    /********************/\n    modifier updateReward(address account) {\n        s_rewardPerTokenStored = rewardPerToken();\n        s_lastUpdateTime = block.timestamp;\n        s_rewards[account] = earned(account);\n        s_userRewardPerTokenPaid[account] = s_rewardPerTokenStored;\n        _;\n    }\n\n    modifier moreThanZero(uint256 amount) {\n        if (amount == 0) {\n            revert NeedsMoreThanZero();\n        }\n        _;\n    }\n\n    /********************/\n    /* Getter Functions */\n    /********************/\n    // Ideally, we'd have getter functions for all our s_ variables we want exposed, and set them all to private.\n    // But, for the purpose of this demo, we've left them public for simplicity.\n\n    function getStaked(address account) public view returns (uint256) {\n        return s_balances[account];\n    }\n}\n",
  "sourcePath": "/home/moneyhoardermike/ChainLink/blocks-of-passion-protocol/src/contracts/Staking.sol",
  "compiler": {
    "name": "solc",
    "version": "0.8.17+commit.8df45f5f.Emscripten.clang"
  },
  "schemaVersion": "3.4.10",
  "updatedAt": "2022-11-18T03:53:16.617Z",
  "devdoc": {
    "kind": "dev",
    "methods": {
      "stake(uint256)": {
        "params": {
          "amount": "| How much to stake"
        }
      },
      "withdraw(uint256)": {
        "params": {
          "amount": "| How much to withdraw"
        }
      }
    },
    "version": 1
  },
  "userdoc": {
    "kind": "user",
    "methods": {
      "claimReward()": {
        "notice": "User claims their tokens"
      },
      "earned(address)": {
        "notice": "How much reward a user has earned"
      },
      "rewardPerToken()": {
        "notice": "How much reward a token gets based on how long it's been in and during which \"snapshots\""
      },
      "stake(uint256)": {
        "notice": "Deposit tokens into this contract"
      },
      "withdraw(uint256)": {
        "notice": "Withdraw tokens from this contract"
      }
    },
    "version": 1
  }
}