{
  "contractName": "TestUniswap",
  "abi": [
    {
      "inputs": [
        {
          "internalType": "address",
          "name": "_tokenIn",
          "type": "address"
        },
        {
          "internalType": "address",
          "name": "_tokenOut",
          "type": "address"
        },
        {
          "internalType": "uint256",
          "name": "_amountIn",
          "type": "uint256"
        },
        {
          "internalType": "uint256",
          "name": "_amountOutMin",
          "type": "uint256"
        },
        {
          "internalType": "address",
          "name": "_to",
          "type": "address"
        }
      ],
      "name": "swap",
      "outputs": [],
      "stateMutability": "nonpayable",
      "type": "function"
    }
  ],
  "bytecode": "0x608060405234801561001057600080fd5b50610a11806100206000396000f3fe608060405234801561001057600080fd5b506004361061002b5760003560e01c8063d5bcb9b514610030575b600080fd5b61004a6004803603810190610045919061057f565b61004c565b005b8473ffffffffffffffffffffffffffffffffffffffff166323b872dd3330866040518463ffffffff1660e01b815260040161008993929190610618565b6020604051808303816000875af11580156100a8573d6000803e3d6000fd5b505050506040513d601f19601f820116820180604052508101906100cc9190610687565b508473ffffffffffffffffffffffffffffffffffffffff1663095ea7b3737a250d5630b4cf539739df2c5dacb4c659f2488d856040518363ffffffff1660e01b815260040161011c9291906106b4565b6020604051808303816000875af115801561013b573d6000803e3d6000fd5b505050506040513d601f19601f8201168201806040525081019061015f9190610687565b50606073c02aaa39b223fe8d0a0e5c4f27ead9083c756cc273ffffffffffffffffffffffffffffffffffffffff168673ffffffffffffffffffffffffffffffffffffffff1614806101ef575073c02aaa39b223fe8d0a0e5c4f27ead9083c756cc273ffffffffffffffffffffffffffffffffffffffff168573ffffffffffffffffffffffffffffffffffffffff16145b156102e357600267ffffffffffffffff81111561020f5761020e6106dd565b5b60405190808252806020026020018201604052801561023d5781602001602082028036833780820191505090505b50905085816000815181106102555761025461070c565b5b602002602001019073ffffffffffffffffffffffffffffffffffffffff16908173ffffffffffffffffffffffffffffffffffffffff168152505084816001815181106102a4576102a361070c565b5b602002602001019073ffffffffffffffffffffffffffffffffffffffff16908173ffffffffffffffffffffffffffffffffffffffff1681525050610431565b600367ffffffffffffffff8111156102fe576102fd6106dd565b5b60405190808252806020026020018201604052801561032c5781602001602082028036833780820191505090505b50905085816000815181106103445761034361070c565b5b602002602001019073ffffffffffffffffffffffffffffffffffffffff16908173ffffffffffffffffffffffffffffffffffffffff168152505073c02aaa39b223fe8d0a0e5c4f27ead9083c756cc2816001815181106103a7576103a661070c565b5b602002602001019073ffffffffffffffffffffffffffffffffffffffff16908173ffffffffffffffffffffffffffffffffffffffff168152505084816002815181106103f6576103f561070c565b5b602002602001019073ffffffffffffffffffffffffffffffffffffffff16908173ffffffffffffffffffffffffffffffffffffffff16815250505b737a250d5630b4cf539739df2c5dacb4c659f2488d73ffffffffffffffffffffffffffffffffffffffff166338ed173985858486426040518663ffffffff1660e01b81526004016104869594939291906107f9565b6000604051808303816000875af11580156104a5573d6000803e3d6000fd5b505050506040513d6000823e3d601f19601f820116820180604052508101906104ce9190610992565b50505050505050565b6000604051905090565b600080fd5b600080fd5b600073ffffffffffffffffffffffffffffffffffffffff82169050919050565b6000610516826104eb565b9050919050565b6105268161050b565b811461053157600080fd5b50565b6000813590506105438161051d565b92915050565b6000819050919050565b61055c81610549565b811461056757600080fd5b50565b60008135905061057981610553565b92915050565b600080600080600060a0868803121561059b5761059a6104e1565b5b60006105a988828901610534565b95505060206105ba88828901610534565b94505060406105cb8882890161056a565b93505060606105dc8882890161056a565b92505060806105ed88828901610534565b9150509295509295909350565b6106038161050b565b82525050565b61061281610549565b82525050565b600060608201905061062d60008301866105fa565b61063a60208301856105fa565b6106476040830184610609565b949350505050565b60008115159050919050565b6106648161064f565b811461066f57600080fd5b50565b6000815190506106818161065b565b92915050565b60006020828403121561069d5761069c6104e1565b5b60006106ab84828501610672565b91505092915050565b60006040820190506106c960008301856105fa565b6106d66020830184610609565b9392505050565b7f4e487b7100000000000000000000000000000000000000000000000000000000600052604160045260246000fd5b7f4e487b7100000000000000000000000000000000000000000000000000000000600052603260045260246000fd5b600081519050919050565b600082825260208201905092915050565b6000819050602082019050919050565b6107708161050b565b82525050565b60006107828383610767565b60208301905092915050565b6000602082019050919050565b60006107a68261073b565b6107b08185610746565b93506107bb83610757565b8060005b838110156107ec5781516107d38882610776565b97506107de8361078e565b9250506001810190506107bf565b5085935050505092915050565b600060a08201905061080e6000830188610609565b61081b6020830187610609565b818103604083015261082d818661079b565b905061083c60608301856105fa565b6108496080830184610609565b9695505050505050565b600080fd5b6000601f19601f8301169050919050565b61087282610858565b810181811067ffffffffffffffff82111715610891576108906106dd565b5b80604052505050565b60006108a46104d7565b90506108b08282610869565b919050565b600067ffffffffffffffff8211156108d0576108cf6106dd565b5b602082029050602081019050919050565b600080fd5b6000815190506108f581610553565b92915050565b600061090e610909846108b5565b61089a565b90508083825260208201905060208402830185811115610931576109306108e1565b5b835b8181101561095a578061094688826108e6565b845260208401935050602081019050610933565b5050509392505050565b600082601f83011261097957610978610853565b5b81516109898482602086016108fb565b91505092915050565b6000602082840312156109a8576109a76104e1565b5b600082015167ffffffffffffffff8111156109c6576109c56104e6565b5b6109d284828501610964565b9150509291505056fea264697066735822122095e173ee3b272ba5d4bf414f513c608ae62dfda809fa0bc2343694a1aac2e8dd64736f6c63430008110033",
  "immutableReferences": {},
  "source": "// SPDX-License-Identifier: MIT\n// Inspired by https://solidity-by-example.org/defi/uniswap-v2/\n\npragma solidity ^0.8.7;\n\n// This is not a full swapping contract, but an implementation of how to interact with uniswap or a uniswap clone\ncontract TestUniswap {\n    address private constant UNISWAP_V2_ROUTER = 0x7a250d5630B4cF539739dF2C5dAcb4c659F2488D;\n    address private constant WETH = 0xC02aaA39b223FE8D0A0e5C4F27eAD9083C756Cc2;\n\n    function swap(\n        address _tokenIn,\n        address _tokenOut,\n        uint256 _amountIn,\n        uint256 _amountOutMin,\n        address _to\n    ) external {\n        IERC20(_tokenIn).transferFrom(msg.sender, address(this), _amountIn);\n        IERC20(_tokenIn).approve(UNISWAP_V2_ROUTER, _amountIn);\n\n        address[] memory path;\n        if (_tokenIn == WETH || _tokenOut == WETH) {\n            path = new address[](2);\n            path[0] = _tokenIn;\n            path[1] = _tokenOut;\n        } else {\n            path = new address[](3);\n            path[0] = _tokenIn;\n            path[1] = WETH;\n            path[2] = _tokenOut;\n        }\n\n        IUniswapV2Router(UNISWAP_V2_ROUTER).swapExactTokensForTokens(\n            _amountIn,\n            _amountOutMin,\n            path,\n            _to,\n            block.timestamp\n        );\n    }\n}\n\ninterface IUniswapV2Router {\n    function swapExactTokensForTokens(\n        uint256 amountIn,\n        uint256 amountOutMin,\n        address[] calldata path,\n        address to,\n        uint256 deadline\n    ) external returns (uint256[] memory amounts);\n}\n\ninterface IERC20 {\n    function totalSupply() external view returns (uint256);\n\n    function balanceOf(address account) external view returns (uint256);\n\n    function transfer(address recipient, uint256 amount) external returns (bool);\n\n    function allowance(address owner, address spender) external view returns (uint256);\n\n    function approve(address spender, uint256 amount) external returns (bool);\n\n    function transferFrom(\n        address sender,\n        address recipient,\n        uint256 amount\n    ) external returns (bool);\n}\n\n// License\n// MIT License\n\n// Copyright (c) 2018 Tasuku Nakamura\n\n// Permission is hereby granted, free of charge, to any person obtaining a copy\n// of this software and associated documentation files (the \"Software\"), to deal\n// in the Software without restriction, including without limitation the rights\n// to use, copy, modify, merge, publish, distribute, sublicense, and/or sell\n// copies of the Software, and to permit persons to whom the Software is\n// furnished to do so, subject to the following conditions:\n\n// The above copyright notice and this permission notice shall be included in all\n// copies or substantial portions of the Software.\n\n// THE SOFTWARE IS PROVIDED \"AS IS\", WITHOUT WARRANTY OF ANY KIND, EXPRESS OR\n// IMPLIED, INCLUDING BUT NOT LIMITED TO THE WARRANTIES OF MERCHANTABILITY,\n// FITNESS FOR A PARTICULAR PURPOSE AND NONINFRINGEMENT. IN NO EVENT SHALL THE\n// AUTHORS OR COPYRIGHT HOLDERS BE LIABLE FOR ANY CLAIM, DAMAGES OR OTHER\n// LIABILITY, WHETHER IN AN ACTION OF CONTRACT, TORT OR OTHERWISE, ARISING FROM,\n// OUT OF OR IN CONNECTION WITH THE SOFTWARE OR THE USE OR OTHER DEALINGS IN THE\n// SOFTWARE.\n",
  "sourcePath": "/home/moneyhoardermike/ChainLink/blocks-of-passion-protocol/src/contracts/Swap.sol",
  "compiler": {
    "name": "solc",
    "version": "0.8.17+commit.8df45f5f.Emscripten.clang"
  },
  "schemaVersion": "3.4.10",
  "updatedAt": "2022-11-18T03:53:16.681Z",
  "devdoc": {
    "kind": "dev",
    "methods": {},
    "version": 1
  },
  "userdoc": {
    "kind": "user",
    "methods": {},
    "version": 1
  }
}